S017000050726F6A6563745F48432D535230342E7372656316
S11300000C9434000C9451000C9451000C94510045
S11300100C9451000C9451000C9451000C94510018
S11300200C9451000C94AB020C9451000C945100AC
S11300300C9451000C9430040C9451000C94510015
S11300400C94EF010C9451000C943E060C946C0635
S11300500C9451000C9451000C9451000C945100D8
S11300600C9451000C94510011241FBECFEFD8E022
S1130070DEBFCDBF11E0A0E0B1E0E2EDF0E102C0EF
S113008005900D92AE39B107D9F722E0AEE9B1E09F
S113009001C01D92A730B207E1F70E9442010C94FF
S11300A067080C940000FC01408121E030E002C0AC
S11300B0220F331F6A95E2F7242B20830895FC0155
S11300C0808121E030E002C0220F331F6A95E2F7FD
S11300D02095822380838081818128232183089530
S11300E0FC01908121E030E002C0220F331F6A95A9
S11300F0E2F72095292320830895FC01408121E023
S113010030E002C0220F331F6A95E2F7242B2083CC
S11301100895FC01408121E030E002C0220F331F2A
S11301206A95E2F7242720830895FC01808190E0FA
S113013002C0959587956A95E2F781700895299A8A
S113014085E08A95F1F7000029980895CF93C82F88
S1130150662311F0289A01C02898549A559A569A01
S1130160579A5F985E985D985C98CC230CF45F9ADC
S1130170C6FD5E9AC5FD5D9AC4FD5C9A0E949F000F
S11301805F985E985D985C98C3FD5F9AC2FD5E9A25
S1130190C1FD5D9AC0FD5C9A0E949F005C9A5D9AC5
S11301A05E9A5F9A87EB9BE00197F1F700C000002D
S11301B0CF91089560E00E94A6000895611104C0E3
S11301C080580E94DA00089580540E94DA0008954D
S11301D081E00E94DA00089561E00E94A60008957B
S11301E0CF93DF93EC012196FC018081882329F0D1
S11301F00E94EC0089918111FBCFDF91CF9108958A
S1130200CF93C82F209A559A219A549A559A569A60
S1130210579A8FEF99EF0197F1F700C000005D9AAC
S11302205C9A0E949F008FE19EE40197F1F700C061
S113023000000E949F008FEF90E00197F1F700C04B
S113024000000E949F008FEF90E00197F1F700C03B
S113025000005C980E949F008FEF90E00197F1F7F7
S113026000C0000088E20E94DA0088E00E94DA0000
S11302700E94E80086E00E94DA008C2F0E94DA00D7
S1130280CF91089562E084E290E00E94530062E01E
S113029085E290E00E94700064E084E290E00E94B5
S11302A0530064E085E290E00E94700063E084E221
S11302B090E00E945F0065E084E290E00E945F00AD
S11302C061E087E290E00E94530061E088E290E000
S11302D00E94700062E087E290E00E94530062E0B6
S11302E088E290E00E94700063E087E290E00E9460
S11302F0530063E088E290E00E94700064E087E2CB
S113030090E00E94530064E088E290E00E94700054
S113031063E08AE290E00E94530063E08BE290E0A5
S11303200E94700062E08AE290E00E94530062E062
S11303308BE290E00E94700061E08AE290E00E940B
S1130340530061E08BE290E00E94700060E08AE27A
S113035090E00E94530060E08BE290E00E94700005
S113036065E087E290E00E94530065E088E290E057
S11303700E9470008CE00E94000160E080E00E9416
S1130380DE0086E091E00E94F00061E080E00E94DF
S1130390DE0087E191E00E94F00087E690E00E9491
S11303A0960688E291E00E94C40685B5897F85BDE2
S11303B085B5816085BDEEE6F0E080818160808353
S11303C0E1E8F0E080818B7F80838081836080839B
S11303D0EFE6F0E08081816080837894FFCF1F9204
S11303E00F920FB60F9211242F933F934F935F9365
S11303F06F937F938F939F93AF93BF93EF93FF93E9
S11304008091B2019091B30101969093B3018093CE
S1130410B2012091B101222319F02130E9F088C002
S113042062E085E290E00E947D0064E085E290E075
S11304300E947D0025E32A95F1F7000062E085E241
S113044090E00E94700064E085E290E00E947000F9
S113045081E08093B1016EC0893E9D4F10F563E049
S113046083E290E00E949500882349F08091AF01D7
S11304709091B00101969093B0018093AF0165E033
S113048083E290E00E949500882309F453C0809190
S1130490AD019091AE0101969093AE018093AD01B0
S11304A049C01092B3011092B2016091AF017091F2
S11304B0B00180E090E00E940E0726E933E44BE8A7
S11304C05CE30E949D0720E030E040E851E40E9494
S11304D09D076093B9017093BA018093BB01909317
S11304E0BC016091AD017091AE0180E090E00E948A
S11304F00E0726E933E44BE85CE30E949D0720E005
S113050030E040E851E40E949D076093B501709388
S1130510B6018093B7019093B8011092B001109284
S1130520AF011092AE011092AD011092B10102C060
S11305301092B101FF91EF91BF91AF919F918F9173
S11305407F916F915F914F913F912F910F900FBECB
S11305500F901F9018951F920F920FB60F921124AF
S11305602F933F934F935F936F937F938F939F93B7
S1130570AF93BF93EF93FF938091AA018F5F809312
S1130580AA0165E088E290E00E9489009091AA01A6
S11305908091B401981738F0E0E7F0E080818E7F15
S11305A080831092AA01FF91EF91BF91AF919F9127
S11305B08F917F916F915F914F913F912F910F9008
S11305C00FBE0F901F901895682F87E00E94DE00E1
S11305D083E391E00E94F0000895CF92DF92EF92BE
S11305E0FF921F93CF93DF93CDB7DEB72D970FB64E
S11305F0F894DEBF0FBECDBF6E837F838887998753
S11306002A873B874C875D8785E0E0E0F1E0DE01E7
S1130610119601900D928A95E1F72E813F814885CC
S113062059856091A6017091A7018091A8019091CC
S1130630A9010E94D306882309F4F4C08E819F8106
S1130640A885B9858093A6019093A701A093A801DA
S1130650B093A9018E819F81A885B9858093A20159
S11306609093A301A093A401B093A50186E0E0E0D8
S1130670F1E0DE01119601900D928A95E1F72A8549
S11306803B854C855D8560919E0170919F018091B1
S1130690A0019091A1010E94D306882319F18A85B3
S11306A09B85AC85BD8580939E0190939F01A0930B
S11306B0A001B093A1018A859B85AC85BD858093FB
S11306C0A2019093A301A093A401B093A50185E096
S11306D0E8E9F1E0DE01119601900D928A95E1F7C7
S11306E011E001C010E06091A2017091A30180911A
S11306F0A4019091A5010E94D806DC01CB014AE037
S113070062E072E00E943208C090A201D090A3017E
S1130710E090A401F090A50120E030E040E050E436
S1130720C701B6010E94D3068823C4F4812F0E9416
S1130730E402612F87E00E94DE0084E491E00E94DD
S1130740F000CE0101960E94C4068AE491E00E9462
S1130750C40681E391E00E94C40674C020E030E046
S113076048EC53E4C701B6010E94D306181624F1DD
S1130770812F0E94E402612F88E00E94DE0082E063
S113078092E00E94F0008DE591E00E94F000CE011D
S113079001960E94C40682E691E00E94C40682E0AB
S11307A092E00E94C4068DE591E00E94C40681E3B4
S11307B091E00E94C40646C020E030E048EC53E4D7
S11307C0C701B6010E9498071816C4F4812F0E942D
S11307D0E402612F87E00E94DE008EE691E00E9431
S11307E0F000CE0101960E94C40686E791E00E94C3
S11307F0C40681E391E00E94C40624C0812F0E94B4
S1130800E402612F80E00E94DE0087E891E00E940C
S1130810F00087E891E00E94C40681E391E00E9421
S1130820C40610C02A853B854C855D8560919E0178
S113083070919F018091A0019091A1010E94D30623
S113084081112DCF2D960FB6F894DEBF0FBECDBF0C
S1130850DF91CF911F91FF90EF90DF90CF9008959B
S11308601F920F920FB60F9211242F933F934F9321
S11308705F936F937F938F939F93AF93BF93EF9304
S1130880FF93E1EBF0E080818E7F8083808186603E
S113089080832091B5013091B6014091B701509108
S11308A0B8016091B9017091BA018091BB01909136
S11308B0BC010E94ED026091B9017091BA0180916E
S11308C0BB019091BC012091B5013091B6014091DA
S11308D0B7015091B8010E94D30688237CF460913B
S11308E0B9017091BA018091BB019091BC010E9441
S11308F0DF067093AC016093AB010EC06091B5014B
S11309007091B6018091B7019091B8010E94DF0601
S11309107093AC016093AB018091AB019091AC01F9
S11309208031910588F488EC8093B401E1EBF0E028
S113093080818D7F8083808185608083E0E7F0E023
S113094080818160808339C08333910588F482E398
S11309508093B401E1EBF0E080818E7F808380811D
S113096086608083E0E7F0E080818160808325C039
S11309708536910588F48AE08093B401E1EBF0E0D8
S113098080818E7F8083808186608083E0E7F0E0D1
S113099080818160808311C08E37910548F485E0A1
S11309A08093B401E0E7F0E080818160808305C03A
S11309B0E0E7F0E080818E7F80836091B9017091DF
S11309C0BA018091BB019091BC0120E030E040E786
S11309D051E40E94D3061816ACF061E088E290E07E
S11309E00E947D0062E088E290E00E947D0063E066
S11309F088E290E00E947D0064E088E290E00E943A
S1130A007D0083C06091B9017091BA018091BB01EE
S1130A109091BC0120E030E048E452E40E94D30607
S1130A201816ACF061E088E290E00E947D0062E07C
S1130A3088E290E00E947D0063E088E290E00E94FA
S1130A407D0064E088E290E00E9470005EC06091E6
S1130A50B9017091BA018091BB019091BC0120E071
S1130A6030E048EC52E40E94D3061816ACF061E082
S1130A7088E290E00E947D0062E088E290E00E94BB
S1130A807D0063E088E290E00E94700064E088E208
S1130A9090E00E94700039C06091B9017091BA0170
S1130AA08091BB019091BC0120E030E04AEF52E418
S1130AB00E94D3061816ACF061E088E290E00E9430
S1130AC07D0062E088E290E00E94700063E088E2CA
S1130AD090E00E94700064E088E290E00E94700060
S1130AE014C061E088E290E00E94700062E088E255
S1130AF090E00E94700063E088E290E00E94700041
S1130B0064E088E290E00E9470006091B501709109
S1130B10B6018091B7019091B80120E030E040E740
S1130B2051E40E94D3061816ACF063E08BE290E027
S1130B300E947D0062E08BE290E00E947D0061E013
S1130B408BE290E00E947D0060E08BE290E00E94E6
S1130B507D0083C06091B5017091B6018091B701A9
S1130B609091B80120E030E048E452E40E94D306BA
S1130B701816ACF063E08BE290E00E947D0062E026
S1130B808BE290E00E947D0061E08BE290E00E94A5
S1130B907D0060E08BE290E00E9470005EC0609196
S1130BA0B5017091B6018091B7019091B80120E030
S1130BB030E048EC52E40E94D3061816ACF063E02F
S1130BC08BE290E00E947D0062E08BE290E00E9464
S1130BD07D0061E08BE290E00E94700060E08BE2B7
S1130BE090E00E94700039C06091B5017091B60127
S1130BF08091B7019091B80120E030E04AEF52E4CF
S1130C000E94D3061816ACF063E08BE290E00E94D9
S1130C107D0062E08BE290E00E94700061E08BE274
S1130C2090E00E94700060E08BE290E00E9470000F
S1130C3014C063E08BE290E00E94700062E08BE2FB
S1130C4090E00E94700061E08BE290E00E947000EE
S1130C5060E08BE290E00E947000FF91EF91BF9101
S1130C60AF919F918F917F916F915F914F913F9140
S1130C702F910F900FBE0F901F9018951F920F92F7
S1130C800FB60F9211242F938F939F93EF93FF939B
S1130C908091C0002091C6008C71E091BF01EF5F8C
S1130CA0EF719091BE01E91739F0E093BF01F0E0D4
S1130CB0EE53FE4F208301C082E09091BD01892B49
S1130CC08093BD01FF91EF919F918F912F910F9090
S1130CD00FBE0F901F9018951F920F920FB60F9290
S1130CE011248F939F93EF93FF939091C10180916F
S1130CF0C001981769F0E091C001EF5FEF71E093D4
S1130D00C001F0E0EE51FE4F80818093C60005C023
S1130D10E1ECF0E080818F7D8083FF91EF919F91E2
S1130D208F910F900FBE0F901F9018951092C101D4
S1130D301092C0011092BF011092BE0199231CF4BD
S1130D4022E02093C00090789093C5008093C40063
S1130D5088E98093C10086E08093C20008952091C1
S1130D60C1012F5F2F719091C0012917E1F3E22F88
S1130D70F0E0EE51FE4F80832093C101E1ECF0E0FE
S1130D808081806280830895CF93DF93EC01888112
S1130D90882331F021960E94AF0689918111FBCFFF
S1130DA0DF91CF9108950E944B0708F481E00895E4
S1130DB00E94DF066894B1110C94920708950E9472
S1130DC0770788F09F5798F0B92F9927B751B0F05B
S1130DD0E1F0660F771F881F991F1AF0BA95C9F7BB
S1130DE014C0B13091F00E949107B1E008950C94C1
S1130DF09107672F782F8827B85F39F0B93FCCF374
S1130E00869577956795B395D9F73EF49095809537
S1130E10709561957F4F8F4F9F4F0895E89409C057
S1130E2097FB3EF490958095709561957F4F8F4F19
S1130E309F4F9923A9F0F92F96E9BB279395F6952F
S1130E40879577956795B795F111F8CFFAF4BB0FAD
S1130E5011F460FF1BC06F5F7F4F8F4F9F4F16C011
S1130E60882311F096E911C0772321F09EE8872F9B
S1130E70762F05C0662371F096E8862F70E060E057
S1130E802AF09A95660F771F881FDAF7880F9695D0
S1130E90879597F90895990F0008550FAA0BE0E874
S1130EA0FEEF16161706E807F907C0F01216130628
S1130EB0E407F50798F0621B730B840B950B39F468
S1130EC00A2661F0232B242B252B21F408950A26CE
S1130ED009F4A140A6958FEF811D811D089557FD4A
S1130EE09058440F551F59F05F3F71F04795880F94
S1130EF097FB991F61F09F3F79F08795089512162B
S1130F0013061406551FF2CF4695F1DF08C01616D6
S1130F1017061806991FF1CF869571056105089487
S1130F200895E894BB2766277727CB0197F908959E
S1130F300E944B0708F48FEF08950E94B0070C94A9
S1130F4021080E94130838F00E941A0820F0952303
S1130F5011F00C940A080C94100811240C949207B4
S1130F600E946F0770F3959FC1F3950F50E0551FD2
S1130F70629FF001729FBB27F00DB11D639FAA27EA
S1130F80F00DB11DAA1F649F6627B00DA11D661F39
S1130F90829F2227B00DA11D621F739FB00DA11D5A
S1130FA0621F839FA00D611D221F749F3327A00D14
S1130FB0611D231F849F600D211D822F762F6A2FB0
S1130FC011249F5750409AF0F1F088234AF0EE0F15
S1130FD0FF1FBB1F661F771F881F91505040A9F742
S1130FE09E3F510580F00C940A080C9492075F3FD1
S1130FF0E4F3983ED4F3869577956795B795F7957E
S1131000E7959F5FC1F7FE2B880F911D96958795F5
S113101097F9089597F99F6780E870E060E0089574
S11310209FEF80EC089500240A94161617061806FC
S11310300906089500240A941216130614060506D8
S11310400895092E0394000C11F4882352F0BB0F69
S113105040F4BF2B11F460FF04C06F5F7F4F8F4FCC
S11310609F4F0895BB274A3031F4992322F4BDE2FF
S1131070909581959F4F0C943E08BB27FB01552703
S1131080AA27880F991FAA1FA41710F0A41B8395E1
S11310905051B9F7A05DAA3308F0A95DA193009758
S11310A079F7B111B1931192CB010C945708DC017B
S11310B0FC01672F71917723E1F7329704C07C918B
S11310C06D9370836291AE17BF07C8F30895F894C7
S10510D0FFCF4C
S11310D246726F6E740046726F6E743A2053746176
S11310E26E6462792E2E00204261636B3A2053743F
S11310F2616E6462792E2E0057656C636F6D652E86
S11311020A0A002020202020202020202020202025
S1131112202020003C3220636D00206F626A6563E8
S11311227420746F6F20636C6F73652E00202063CC
S11311326D002064697374616E63653A20003E3405
S1131142303020636D00206F626A65637420746FAF
S11311526F206661722E00536F6D657468696E67E5
S1111162732077726F6E67004261636B00004A
S9030000FC
