:100000000C9434000C9451000C9451000C94510049
:100010000C9451000C9451000C9451000C9451001C
:100020000C9451000C947F020C9451000C945100DC
:100030000C9451000C946B030C9451000C945100DF
:100040000C94C3010C9451000C948F040C94BD04C7
:100050000C9451000C9451000C9451000C945100DC
:100060000C9451000C94510011241FBECFEFD8E026
:10007000DEBFCDBF11E0A0E0B1E0ECE5FDE002C0E5
:1000800005900D92A039B107D9F721E0A0E9B1E0C0
:1000900001C01D92AA3EB207E1F70E9442010C94F2
:1000A000AC060C940000FC01408121E030E002C06D
:1000B000220F331F6A95E2F7242B20830895FC0159
:1000C000808121E030E002C0220F331F6A95E2F701
:1000D0002095822380838081818128232183089534
:1000E000FC01908121E030E002C0220F331F6A95AD
:1000F000E2F72095292320830895FC01408121E027
:1001000030E002C0220F331F6A95E2F7242B2083D0
:100110000895FC01408121E030E002C0220F331F2E
:100120006A95E2F7242720830895FC01808190E0FE
:1001300002C0959587956A95E2F781700895299A8E
:1001400085E08A95F1F7000029980895CF93C82F8C
:10015000662311F0289A01C02898549A559A569A05
:10016000579A5F985E985D985C98CC230CF45F9AE0
:10017000C6FD5E9AC5FD5D9AC4FD5C9A0E949F0013
:100180005F985E985D985C98C3FD5F9AC2FD5E9A29
:10019000C1FD5D9AC0FD5C9A0E949F005C9A5D9AC9
:1001A0005E9A5F9A87EB9BE00197F1F700C0000031
:1001B000CF91089560E00E94A6000895611104C0E7
:1001C00080580E94DA00089580540E94DA00089551
:1001D00081E00E94DA00089561E00E94A60008957F
:1001E000CF93DF93EC012196FC018081882329F0D5
:1001F0000E94EC0089918111FBCFDF91CF9108958E
:10020000CF93C82F209A559A219A549A559A569A64
:10021000579A8FEF99EF0197F1F700C000005D9AB0
:100220005C9A0E949F008FE19EE40197F1F700C065
:1002300000000E949F008FEF90E00197F1F700C04F
:1002400000000E949F008FEF90E00197F1F700C03F
:1002500000005C980E949F008FEF90E00197F1F7FB
:1002600000C0000088E20E94DA0088E00E94DA0004
:100270000E94E80086E00E94DA008C2F0E94DA00DB
:10028000CF91089562E084E290E00E94530062E022
:1002900085E290E00E94700064E084E290E00E94B9
:1002A000530064E085E290E00E94700063E084E225
:1002B00090E00E945F0065E084E290E00E945F00B1
:1002C00061E087E290E00E94530061E088E290E004
:1002D0000E94700062E087E290E00E94530062E0BA
:1002E00088E290E00E94700063E087E290E00E9464
:1002F000530063E088E290E00E94700064E087E2CF
:1003000090E00E94530064E088E290E00E94700058
:1003100065E087E290E00E94530065E088E290E0AB
:100320000E9470008CE00E94000160E080E00E946A
:10033000DE008FE091E00E94F00061E080E00E942A
:10034000DE0087E191E00E94F00085B5897F85BDE0
:1003500085B5816085BDEEE6F0E0808181608083B7
:10036000E1E8F0E080818B7F8083808183608083FF
:10037000EFE6F0E080818160808387E690E00E9474
:10038000E7047894FFCF1F920F920FB60F921124BB
:100390002F933F934F935F936F937F938F939F938D
:1003A000AF93BF93EF93FF93809195019091960146
:1003B00001969093960180939501209194012223B8
:1003C00019F02130E9F088C062E085E290E00E94F7
:1003D0007D0064E085E290E00E947D0025E32A959F
:1003E000F1F7000062E085E290E00E94700064E0B6
:1003F00085E290E00E94700081E0809394016EC0DD
:10040000873A9E4010F563E083E290E00E949500F9
:10041000882349F0809192019091930101969093E5
:1004200093018093920165E083E290E00E94950041
:10043000882309F453C08091900190919101019615
:10044000909391018093900149C01092960110926F
:100450009501609192017091930180E090E00E947B
:10046000580526E933E44BE85CE30E94E20520E00E
:1004700030E040E851E40E94E2056093A1017093EE
:10048000A2018093A3019093A401609190017091C7
:10049000910180E090E00E94580526E933E44BE8A2
:1004A0005CE30E94E20520E030E040E851E40E9475
:1004B000E20560939D0170939E0180939F0190934C
:1004C000A00110929301109292011092910110924A
:1004D00090011092940102C010929401FF91EF914B
:1004E000BF91AF919F918F917F916F915F914F914C
:1004F0003F912F910F900FBE0F901F9018951F9254
:100500000F920FB60F9211242F933F934F935F9347
:100510006F937F938F939F93AF93BF93EF93FF93CB
:1005200065E088E290E00E948900FF91EF91BF9121
:10053000AF919F918F917F916F915F914F913F917B
:100540002F910F900FBE0F901F901895682F87E086
:100550000E94DE008FE191E00E94F0000895EF928A
:10056000FF920F931F93CF93DF9300D000D01F9281
:10057000CDB7DEB78C011A821982FE01339683E073
:10058000DF011D928A95E9F78091990190919A0176
:100590008017910709F48BC010939A010093990179
:1005A00086E0E0E3F1E0DE01119601900D928A957C
:1005B000E1F780919701909198016817790791F080
:1005C000709398016093970185E0EBE8F1E0DE011C
:1005D000119601900D928A95E1F78B01FF24F39417
:1005E000E12C02C0F12CE12C4AE060E071E0C8018E
:1005F0000E94770602301105C8F48F2D9E2D0E94AF
:10060000A6026F2D87E00E94DE0086E391E00E9443
:10061000F000CE0101960E9415058EE391E00E9444
:10062000150581E591E00E94150549C00139114089
:1006300028F58F2D9E2D0E94A6026F2D87E00E9427
:10064000DE0080E091E00E94F00085E691E00E94EB
:10065000F000CE0101960E94150583E591E00E940D
:10066000150580E091E00E94150585E691E00E9465
:10067000150581E591E00E94150521C08F2D9E2D65
:100680000E94A6026F2D80E00E94DE008FE591E0BF
:100690000E94F000CE0101960E94150589E691E0C6
:1006A0000E94150581E591E00E94150508C0809122
:1006B0009701909198016817790709F081CF0F9001
:1006C0000F900F900F900F90DF91CF911F910F918E
:1006D000FF90EF9008951F920F920FB60F92112482
:1006E0008F929F92AF92BF92CF92DF92EF92FF9242
:1006F0002F933F934F935F936F937F938F939F932A
:10070000AF93BF93EF93FF9365E088E290E00E9480
:10071000890060919D0170919E0180919F0190914F
:10072000A0010E9429056B017C016091A1017091DB
:10073000A2018091A3019091A4010E942905DC01EE
:10074000CB01B6010E94AF028090A1019090A2015E
:10075000A090A301B090A401C0909D01D0909E01F3
:10076000E0909F01F090A001A7019601C501B4019E
:100770000E94240588234CF4C501B4010E94290578
:1007800070939C0160939B0108C0C701B6010E9451
:10079000290570939C0160939B0180919B0190912E
:1007A0009C018333910510F561E088E290E00E949E
:1007B0007D0062E088E290E00E947D0063E088E2D4
:1007C00090E00E947D0064E088E290E00E947D005D
:1007D000E1EBF0E080818C7F808380818460808386
:1007E000E0E7F0E080818160808380C08C349105F7
:1007F00010F561E088E290E00E947D0062E088E20E
:1008000090E00E947D0063E088E290E00E947D001D
:1008100064E088E290E00E947000E1EBF0E080810B
:100820008D7F8083808185608083E0E7F0E0808138
:10083000816080835BC08536910510F561E088E2B8
:1008400090E00E947D0062E088E290E00E947D00DE
:1008500063E088E290E00E94700064E088E290E04B
:100860000E947000E1EBF0E080818E7F80838081C8
:1008700086608083E0E7F0E080818160808336C01D
:100880008E379105D0F461E088E290E00E947D000F
:1008900062E088E290E00E94700063E088E290E00D
:1008A0000E94700064E088E290E00E947000E0E73F
:1008B000F0E080818E7F808319C061E088E290E063
:1008C0000E94700062E088E290E00E94700063E0A5
:1008D00088E290E00E94700064E088E290E00E946C
:1008E0007000E0E7F0E080818E7F8083FF91EF91E0
:1008F000BF91AF919F918F917F916F915F914F9138
:100900003F912F91FF90EF90DF90CF90BF90AF90ED
:100910009F908F900F900FBE0F901F9018951F9271
:100920000F920FB60F9211242F938F939F93EF93F3
:10093000FF938091C0002091C6008C71E091A701C7
:10094000EF5FEF719091A601E91739F0E093A701ED
:10095000F0E0E655FE4F208301C082E09091A501B2
:10096000892B8093A501FF91EF919F918F912F91FA
:100970000F900FBE0F901F9018951F920F920FB6F9
:100980000F9211248F939F93EF93FF939091A9015E
:100990008091A801981769F0E091A801EF5FEF71CD
:1009A000E093A801F0E0E653FE4F80818093C600FB
:1009B00005C0E1ECF0E080818F7D8083FF91EF91B5
:1009C0009F918F910F900FBE0F901F9018951092CE
:1009D000A9011092A8011092A7011092A6019923D3
:1009E0001CF422E02093C00090789093C50080937F
:1009F000C40088E98093C10086E08093C200089516
:100A00002091A9012F5F2F719091A8012917E1F37F
:100A1000E22FF0E0E653FE4F80832093A901E1EC42
:100A2000F0E08081806280830895CF93DF93EC01B2
:100A30008881882331F021960E94000589918111D7
:100A4000FBCFDF91CF9108950E94950508F481E0D6
:100A500008950E94C10588F09F5798F0B92F9927F3
:100A6000B751B0F0E1F0660F771F881F991F1AF099
:100A7000BA95C9F714C0B13091F00E94DB05B1E01E
:100A800008950C94DB05672F782F8827B85F39F01D
:100A9000B93FCCF3869577956795B395D9F73EF432
:100AA00090958095709561957F4F8F4F9F4F0895DA
:100AB000E89409C097FB3EF49095809570956195F8
:100AC0007F4F8F4F9F4F9923A9F0F92F96E9BB27AE
:100AD0009395F695879577956795B795F111F8CF2A
:100AE000FAF4BB0F11F460FF1BC06F5F7F4F8F4F95
:100AF0009F4F16C0882311F096E911C0772321F08B
:100B00009EE8872F762F05C0662371F096E8862F22
:100B100070E060E02AF09A95660F771F881FDAF779
:100B2000880F9695879597F90895990F0008550FA6
:100B3000AA0BE0E8FEEF16161706E807F907C0F063
:100B400012161306E407F50798F0621B730B840B6B
:100B5000950B39F40A2661F0232B242B252B21F445
:100B600008950A2609F4A140A6958FEF811D811DE5
:100B7000089557FD9058440F551F59F05F3F71F08D
:100B80004795880F97FB991F61F09F3F79F08795F4
:100B90000895121613061406551FF2CF4695F1DF7D
:100BA00008C0161617061806991FF1CF869571050D
:100BB000610508940895E894BB2766277727CB0141
:100BC00097F908950E94F5050C9466060E94580650
:100BD00038F00E945F0620F0952311F00C944F0628
:100BE0000C94550611240C94DC050E94B90570F391
:100BF000959FC1F3950F50E0551F629FF001729FC2
:100C0000BB27F00DB11D639FAA27F00DB11DAA1FD0
:100C1000649F6627B00DA11D661F829F2227B00D1D
:100C2000A11D621F739FB00DA11D621F839FA00DA8
:100C3000611D221F749F3327A00D611D231F849FF8
:100C4000600D211D822F762F6A2F11249F5750404F
:100C50009AF0F1F088234AF0EE0FFF1FBB1F661FCA
:100C6000771F881F91505040A9F79E3F510580F093
:100C70000C944F060C94DC055F3FE4F3983ED4F3EC
:100C8000869577956795B795F795E7959F5FC1F737
:100C9000FE2B880F911D9695879597F9089597F9E2
:100CA0009F6780E870E060E008959FEF80EC089512
:100CB00000240A941616170618060906089500243B
:100CC0000A9412161306140605060895092E0394B5
:100CD000000C11F4882352F0BB0F40F4BF2B11F429
:100CE00060FF04C06F5F7F4F8F4F9F4F0895BB27FA
:100CF0004A3031F4992322F4BDE2909581959F4FBB
:100D00000C948306BB27FB015527AA27880F991F40
:100D1000AA1FA41710F0A41B83955051B9F7A05D2A
:100D2000AA3308F0A95DA193009779F7B111B193A7
:100D30001192CB010C949C06DC01FC01672F719190
:100D40007723E1F7329704C07C916D9370836291B1
:0C0D5000AE17BF07C8F30895F894FFCF5A
:100D5C0046726F6E74203D2034303020636D004637
:100D6C00726F6E743A2000204261636B3A2000204F
:100D7C002020202020202020202020202020200087
:100D8C0046726F6E7400203C203220636D00206F21
:100D9C00626A65637420746F6F20636C6F73652E69
:100DAC00000A002064697374616E63653A20002048
:100DBC003E2034303020636D002064697374616EA2
:100DCC00636520697320677265617465722074684D
:100DDC00616E2034303020636D2E004261636B00F5
:00000001FF
