S00F000030372D756172742E73726563C5
S11300000C9434000C9451000C9451000C94510045
S11300100C9451000C9451000C9451000C94510018
S11300200C9451000C9451000C9451000C94510008
S11300300C9451000C944B010C9451000C945100FD
S11300400C9451000C9451000C9452020C948002B4
S11300500C9451000C9460010C9451000C945100C8
S11300600C9451000C94510011241FBECFEFD8E022
S1130070DEBFCDBF11E0A0E0B1E0E8EFFBE002C0DD
S113008005900D92AC34B107D9F721E0ACE4B1E0AE
S113009001C01D92A739B207E1F70E94F6000C9443
S11300A0FA050C940000299A85E08A95F1F700007E
S11300B029980895CF93C82F662311F0289A01C078
S11300C02898549A559A569A579A5F985E985D98CC
S11300D05C98CC230CF45F9AC6FD5E9AC5FD5D9ACC
S11300E0C4FD5C9A0E9453005F985E985D985C988A
S11300F0C3FD5F9AC2FD5E9AC1FD5D9AC0FD5C9A24
S11301000E9453005C9A5D9A5E9A5F9A87EB9BE02B
S11301100197F1F700C00000CF91089560E00E94BC
S11301205A000895611104C080580E948E000895F9
S113013080540E948E00089581E00E948E000895EC
S113014061E00E945A000895CF93DF93EC01219659
S1130150FC018081882329F00E94A00089918111EB
S1130160FBCFDF91CF910895CF93C82F209A559A52
S1130170219A549A559A569A579A8FEF99EF019764
S1130180F1F700C000005D9A5C9A0E9453008FE171
S11301909EE40197F1F700C000000E9453008FEF26
S11301A090E00197F1F700C000000E9453008FEF28
S11301B090E00197F1F700C000005C980E945300A2
S11301C08FEF90E00197F1F700C0000088E20E94F1
S11301D08E0088E00E948E000E949C0086E00E94AF
S11301E08E008C2F0E948E00CF910895CF93DF93C1
S11301F0CDB7DEB72A970FB6F894DEBF0FBECDBFDA
S113020042E08E010F5F1F4FB80180E090E00E9432
S1130210E7021F930F930E940C038CE00E94B4002A
S113022060E081E00E94920080E091E00E94A400DE
S113023061E083E00E94920087E091E00E94A400C4
S1130240ECE7F0E080818064808380818F77808315
S11302508081807F8083EAE7F0E08081806880830A
S1130260808188608083808187608083E1E8F0E01A
S113027080818C7F8083808184608083EFE6F0E0DE
S113028080818160808387E690E00E94AA0278944E
S11302900F900F90FFCF1F920F920FB60F92112461
S11302A08F93EF93FF93EAE7F0E08081806480838B
S11302B0FF91EF918F910F900FBE0F901F901895A3
S11302C01F920F920FB60F9211240F931F932F9327
S11302D03F934F935F936F937F938F939F93AF93CA
S11302E0BF93EF93FF93CF93DF93CDB7DEB72F97F1
S11302F0DEBFCDBF00917800109179004AE0BE01C5
S11303006F5F7F4FC8010E94E70260E088E00E94AF
S113031092008CE091E00E94A40060E088E00E94DA
S11303209200CE0101960E94A4000C3B82E01807C3
S113033060F483E191E00E94D802CE0101960E940C
S1130340D8028AE291E00E94D80240E1BE016F5FC8
S11303507F4FC8010E94E70260E08DE00E94920096
S11303608CE091E00E94A40060E08DE00E94920085
S1130370CE0101960E94A40061E088E00E949200F0
S11303808CE091E00E94A400083F83E0180748F045
S113039061E088E00E9492008CE291E00E94A40057
S11303A03AC0063782E0180748F061E088E00E940E
S11303B0920081E391E00E94A4002DC0063881E000
S11303C0180748F061E088E00E94920088E391E019
S11303D00E94A40020C0063E110548F061E088E0B8
S11303E00E9492008DE391E00E94A40014C00A359B
S11303F0110548F061E088E00E94920082E491E0F7
S11304000E94A40008C061E088E00E94920085E494
S113041091E00E94A40042E0BE016A5F7F4FC801E0
S11304200E94E702FE0136969E01205F3F4F10E0D6
S11304308191813309F41F5FE217F307C9F761E083
S11304408FE00E94920080E20E94A00010FD08C08C
S113045061E08FE00E94920080E30E94A00007C048
S113046061E08FE00E94920081E30E94A0002F9639
S11304700FB6F894DEBF0FBECDBFDF91CF91FF91D1
S1130480EF91BF91AF919F918F917F916F915F9108
S11304904F913F912F911F910F910F900FBE0F908D
S11304A01F9018951F920F920FB60F9211242F933D
S11304B08F939F93EF93FF938091C0002091C60088
S11304C08C71E0914E01EF5FEF7190914D01E9174E
S11304D039F0E0934E01F0E0EF5AFE4F208301C063
S11304E082E090914C01892B80934C01FF91EF9114
S11304F09F918F912F910F900FBE0F901F90189581
S11305001F920F920FB60F9211248F939F93EF9324
S1130510FF939091500180914F01981769F0E091F9
S11305204F01EF5FEF71E0934F01F0E0EF58FE4FA2
S113053080818093C60005C0E1ECF0E080818F7D6E
S11305408083FF91EF919F918F910F900FBE0F9039
S11305501F9018951092500110924F0110924E0165
S113056010924D0199231CF422E02093C00090784E
S11305709093C5008093C40088E98093C10086E00D
S11305808093C2000895209150012F5F2F719091A4
S11305904F012917E1F3E22FF0E0EF58FE4F80837B
S11305A020935001E1ECF0E0808180628083089523
S11305B0CF93DF93EC018881882331F021960E9448
S11305C0C30289918111FBCFDF91CF910895BB279D
S11305D04A3031F4992322F4BDE2909581959F4FDE
S11305E00C94F302BB27FB015527AA27880F991FF8
S11305F0AA1FA41710F0A41B83955051B9F7A05D4E
S1130600AA3308F0A95DA193009779F7B111B193CA
S11306101192CB010C941905A0E0B0E0E2E1F3E003
S11306200C94D305AE014B5F5F4FFA016191719158
S1130630AF0180919301909194010E942203E2E022
S11306400C94EF05ABE0B0E0E8E2F3E00C94C305F2
S11306506C017B018A01FC0117821682838181FF70
S1130660CCC1CE0101963C01F6019381F70193FDC3
S1130670859193FF81917F01882309F4BAC1853262
S113068039F493FD859193FF81917F01853229F49B
S1130690B60190E00E942905E7CF912C212C312C42
S11306A0FFE1F315D8F08B3279F038F4803279F029
S11306B08332A1F4232D20611DC08D3261F080337B
S11306C069F4232D216016C0832D8260382EE32D1A
S11306D0E4603E2E2AC0F32DF8601DC037FC2DC007
S11306E020ED280F2A3040F08E32B9F436FC81C157
S11306F0232D2064322E19C036FE06C08AE0989E4F
S1130700200D1124922E11C0EAE02E9E200D1124FA
S1130710222EF32DF0623F2E08C08C3621F4832D57
S11307208068382E02C0883641F4F70193FD859124
S113073093FF81917F018111B3CF982F9F7D9554B1
S1130740933028F40C5F1F4F9FE399830DC08336C9
S113075031F0833771F0833509F059C021C0F801B5
S1130760808189830E5F1F4F88248394912C5301C9
S113077013C02801F2E04F0E511CF801A080B18093
S113078036FE03C0692D70E002C06FEF7FEFC50134
S11307900E940E054C018201F32DFF773F2E16C0F7
S11307A0280122E0420E511CF801A080B18036FEDF
S11307B003C0692D70E002C06FEF7FEFC5010E9496
S11307C003054C01F32DF0683F2E820133FC1BC05E
S11307D0822D90E088169906B0F4B60180E290E08C
S11307E00E9429052A94F4CFF50137FC859137FE40
S11307F081915F01B60190E00E94290521102A949D
S113080021E0821A91088114910471F7E8C08436BA
S113081011F0893641F5F80137FE07C06081718116
S1130820828193810C5F1F4F08C060817181072E04
S1130830000C880B990B0E5F1F4FF32DFF763F2E94
S113084097FF09C090958095709561957F4F8F4F64
S11308509F4FF0683F2E2AE030E0A3010E94650517
S1130860882E861845C0853731F4232D2F7EB22E6D
S11308702AE030E025C0932D997FB92E8F36C1F040
S113088018F4883579F0B5C0803719F0883721F02D
S1130890B0C0E92FE061BE2EB4FE0DC0FB2DF460A4
S11308A0BF2E09C034FE0AC0292F2660B22E06C00E
S11308B028E030E005C020E130E002C020E132E071
S11308C0F801B7FE07C060817181828193810C5F5A
S11308D01F4F06C06081718180E090E00E5F1F4F62
S11308E0A3010E946505882E8618FB2DFF773F2EF5
S11308F036FE0DC0232D2E7FA22E891458F434FE0B
S11309000BC032FC09C0832D8E7EA82E05C0B82CE6
S1130910A32C03C0B82C01C0B92CA4FE0FC0FE0147
S1130920E80DF11D8081803321F49A2D997EA92E42
S113093009C0A2FE06C0B394B39404C08A2D86787D
S113094009F0B394A3FC11C0A0FE06C0B21488F44D
S1130950280C922C9B180EC0B21460F4B60180E2ED
S113096090E00E942905B394F7CFB21418F42B1821
S113097002C0982C212CA4FE10C0B60180E390E0A4
S11309800E942905A2FE17C0A1FC03C088E790E0DD
S113099002C088E590E0B6010CC08A2D867859F033
S11309A0A1FE02C08BE201C080E2A7FC8DE2B60189
S11309B090E00E942905891438F4B60180E390E0A0
S11309C00E9429059A94F7CF8A94F301E80DF11D4A
S11309D08081B60190E00E9429058110F5CF222084
S11309E009F442CEB60180E290E00E9429052A94DF
S11309F0F6CFF6018681978102C08FEF9FEF2B9689
S1130A00E2E10C94DF05FC01059061507040011097
S1130A10D8F7809590958E0F9F1F0895FC01615023
S1130A20704001900110D8F7809590958E0F9F1F0C
S1130A300895DC01FC01672F71917723E1F7329768
S1130A4004C07C916D9370836291AE17BF07C8F3A5
S1130A5008950F931F93CF93DF93FB01238121FD0F
S1130A6003C08FEF9FEF2CC022FF16C04681578131
S1130A70248135814217530744F4A081B1819D013B
S1130A802F5F3F4F318320838C93268137812F5FE3
S1130A903F4F3783268314C08B01EC01FB01008494
S1130AA0F185E02D0995892BE1F6D80116968D91F3
S1130AB09C911797019617969C938E931697CE0147
S1130AC0DF91CF911F910F910895FA01AA27283041
S1130AD051F1203181F1E8946F936E7F6E5F7F4F07
S1130AE08F4F9F4FAF4FB1E03ED0B4E03CD0670F83
S1130AF0781F891F9A1FA11D680F791F8A1F911DD6
S1130B00A11D6A0F711D811D911DA11D20D009F425
S1130B1068943F912AE0269F11243019305D319367
S1130B20DEF6CF010895462F4770405D4193B3E050
S1130B300FD0C9F7F6CF462F4F70405D4A3318F0F7
S1130B40495D31FD4052419302D0A9F7EACFB4E0A8
S1130B50A6959795879577956795BA95C9F7009760
S1130B606105710508959B01AC010A2E0694579501
S1130B70479537952795BA95C9F7620F731F841F58
S1130B80951FA01D08952F923F924F925F926F92EE
S1130B907F928F929F92AF92BF92CF92DF92EF9209
S1130BA0FF920F931F93CF93DF93CDB7DEB7CA1B8A
S1130BB0DB0B0FB6F894DEBF0FBECDBF09942A88B5
S1130BC0398848885F846E847D848C849B84AA845D
S1130BD0B984C884DF80EE80FD800C811B81AA81EA
S1130BE0B981CE0FD11D0FB6F894DEBF0FBECDBFB5
S10B0BF0ED010895F894FFCF14
S1130BF876616C75653A006B65793A00202020208F
S1130C082020004144432076616C756520696E207C
S1130C18646563696D616C3A20000A004E6F6E6505
S1130C280053656C656374004C65667400446F77A3
S10F0C386E00557000526967687400007B
S9030000FC
