S00D0000626C696E6B2E7372656307
S11300000C9434000C9449000C9449000C9449005D
S11300100C9449000C9449000C9449000C94490038
S11300200C9449000C9449000C9449000C94490028
S11300300C9449000C9449000C9449000C94490018
S11300400C9449000C9449000C9449000C94490008
S11300500C9449000C9449000C9449000C944900F8
S11300600C9449000C94490011241FBECFEFD8E032
S1130070DEBFCDBF11E0A0E0B1E0EAE7F1E002C0ED
S113008005900D92A233B107D9F70E9495000C9404
S1130090BB000C940000FC019C012D5C3F4F90E2DE
S11300A081918D32C9F485B1892785B94FEF57E81D
S11300B083E1415050408040E1F700C0000085B129
S11300C0892785B94FEF53EC89E041505040804077
S11300D0E1F700C0000024C08E32C9F485B189273D
S11300E085B94FEF53EC89E0415050408040E1F72F
S11300F000C0000085B1892785B94FEF53EC89E032
S1130100415050408040E1F700C0000009C04FEF6B
S113011051EE84E0415050408040E1F700C00000BF
S1130120E217F30709F0BCCF0895CF93DF93CDB75F
S1130130DEB7E2970FB6F894DEBF0FBECDBF259AA7
S11301402D980F2EF6E2FF2EF02D8E01035F1F4F28
S11301508CE0E0E0F1E0DE01119601900D928A95C9
S1130160E1F7F8018F2D11928A95E9F7CE010196F6
S10D01700E944B00EDCFF894FFCF7E
S113017A2D2E2E2C2E2C2E2E2D2D2D00000000007F
S113018A0000000000000000000000000000000061
S113019A0000000000000000000000000000000051
S10501AA00004F
S9030000FC
