S00B00006C63642E73726563E6
S11300000C9434000C9451000C9451000C94510045
S11300100C9451000C9451000C9451000C94510018
S11300200C9451000C948F010C9451000C945100C9
S11300300C9451000C9451000C9451000C945100F8
S11300400C9436010C9451000C9451000C94510002
S11300500C9451000C9451000C9451000C945100D8
S11300600C9451000C94510011241FBECFEFD8E022
S1130070DEBFCDBF11E0A0E0B1E0E6E0F5E002C0F4
S113008005900D92A835B107D9F721E0A8E5B1E0B4
S113009001C01D92AF35B207E1F70E94FA000C943B
S11300A081020C940000299A85E08A95F1F70000FA
S11300B029980895CF93C82F662311F0289A01C078
S11300C02898549A559A569A579A5F985E985D98CC
S11300D05C98CC230CF45F9AC6FD5E9AC5FD5D9ACC
S11300E0C4FD5C9A0E9453005F985E985D985C988A
S11300F0C3FD5F9AC2FD5E9AC1FD5D9AC0FD5C9A24
S11301000E9453005C9A5D9A5E9A5F9A87EB9BE02B
S11301100197F1F700C00000CF91089560E00E94BC
S11301205A00089561E00E945A000895611104C0C4
S113013080580E948E00089580540E948E00089575
S113014081E00E948E00089561E00E945A000895A3
S1130150CF93DF93EC012196FC018081882329F061
S11301600E94A40089918111FBCFDF91CF91089562
S1130170CF93C82F209A559A219A549A559A569AF1
S1130180579A8FEF99EF0197F1F700C000005D9A3D
S11301905C9A0E9453008FE19EE40197F1F700C03E
S11301A000000E9453008FEF90E00197F1F700C028
S11301B000000E9453008FEF90E00197F1F700C018
S11301C000005C980E9453008FEF90E00197F1F7D4
S11301D000C0000088E20E948E0088E00E948E0029
S11301E00E94A00086E00E948E008C2F0E948E0048
S11301F0CF9108958CE00E94B80080E40E948E00A4
S1130200C1E0D1E001E411E089910E949200C0179D
S1130210D107D1F780E80E948E0080E00E94A400FC
S113022060E081E00E94960081E491E00E94A800D1
S113023061E08BE00E94960083E60E94A40085B5ED
S11302408D7F85BD85B5856085BDEEE6F0E0808156
S113025081608083E1EBF0E0808187608083E0E768
S1130260F0E08081816080837894FFCF1F920F92A9
S11302700FB60F9211242F933F934F935F936F9375
S11302807F938F939F93AF93BF93EF93FF9380914B
S11302905E018150853070F480915D018F5F8093A1
S11302A05D0161E0809100010E94960080915D01F2
S11302B00E94A40080915E018F5F863018F48093C1
S11302C05E011CC010925E0180915C018F5F80937F
S11302D05C01809100018F5F8093000110925D01A9
S11302E08B3060F081E08093000110925C0161E04A
S11302F00E94960089E491E00E94A800FF91EF918A
S1130300BF91AF919F918F917F916F915F914F9129
S11303103F912F910F900FBE0F901F9018951F9231
S11303200F920FB60F9211242F933F934F935F9325
S11303306F937F938F939F93AF93BF93EF93FF93A9
S1130340CF93DF9300D0CDB7DEB780E290E29A83FB
S1130350898380915B018F5F863018F480935B0101
S113036086C010925B0180915A018F5F8A3018F425
S113037080935A0107C010925A01809159018F5FEE
S11303808093590180915A014AE0BE016F5F7F4F0B
S113039090E00E944C0260E087E00E949600CE014B
S11303A001960E94A800809159018A3028F460E0E7
S11303B085E00E94960004C060E084E00E949600FC
S11303C0809159018C3398F0109259018091580111
S11303D08F5F8093580160E08BE00E94960083E574
S11303E091E00E94A80060E084E00E949600809161
S11303F059014AE0BE016F5F7F4F90E00E944C02BA
S1130400CE0101960E94A80060E08BE00E94960055
S1130410809159014AE0BE016F5F7F4F889FC00100
S113042011240E944C02CE0101960E94A8008091E2
S113043058018A3028F460E082E00E94960004C0EB
S113044060E081E00E949600809158018C3310F0A6
S113045010925801809158014AE0BE016F5F7F4FAE
S113046090E00E944C02CE0101960E94A8000F90D9
S11304700F90DF91CF91FF91EF91BF91AF919F9139
S11304808F917F916F915F914F913F912F910F9039
S11304900FBE0F901F901895BB274A3031F4992353
S11304A022F4BDE2909581959F4F0C945802BB278E
S11304B0FB015527AA27880F991FAA1FA41710F01C
S11304C0A41B83955051B9F7A05DAA3308F0A95D28
S11304D0A193009779F7B111B1931192CB010C94C8
S11304E07102DC01FC01672F71917723E1F73297E8
S11304F004C07C916D9370836291AE17BF07C8F3FB
S10905000895F894FFCFFA
S113050601000A1F0E04150E04101010101010100E
S11305161018181818181818181C1C1C1C1C1C1C3D
S11305261C1E1E1E1E1E1E1E1E1F1F1F1F1F1F1FDC
S11305361F00000000000000000000000000000092
S11305460030303A30302E30002020202020202069
S10B05562020003020202000C9
S9030000FC
