S00F000068632D737230342E73726563D4
S11300000C9434000C9451000C9451000C94510045
S11300100C9451000C9451000C9451000C94510018
S11300200C9451000C9451000C9451000C94510008
S11300300C9451000C9451000C9468010C945100E0
S11300400C9451000C9451000C9493020C94C10232
S11300500C9451000C9451000C9451000C945100D8
S11300600C9451000C94510011241FBECFEFD8E022
S1130070DEBFCDBF11E0A0E0B1E0E4E3F9E002C0EF
S113008005900D92AC34B107D9F721E0ACE4B1E0AE
S113009001C01D92AA39B207E1F70E942D010C9408
S11300A098040C940000FC01408121E030E002C07F
S11300B0220F331F6A95E2F7242B20830895FC0155
S11300C0808121E030E002C0220F331F6A95E2F7FD
S11300D0922F90958923808380818181282B21838D
S11300E00895FC01908121E030E002C0220F331F0B
S11300F06A95E2F72095292320830895FC01408125
S113010021E030E002C0220F331F6A95E2F7242B6E
S113011020830895299A85E08A95F1F700002998AB
S11301200895CF93C82F662311F0289A01C0289808
S1130130549A559A569A579A5F985E985D985C9827
S1130140CC230CF45F9AC6FD5E9AC5FD5D9AC4FD8E
S11301505C9A0E948A005F985E985D985C98C3FDE3
S11301605F9AC2FD5E9AC1FD5D9AC0FD5C9A0E94D1
S11301708A005C9A5D9A5E9A5F9A87EB9BE001978E
S1130180F1F700C00000CF91089560E00E94910053
S11301900895611104C080580E94C50008958054D8
S11301A00E94C500089581E00E94C500089561E0A1
S11301B00E9491000895CF93DF93EC012196FC01F6
S11301C08081882329F00E94D70089918111FBCF77
S11301D0DF91CF910895CF93C82F209A559A219AF1
S11301E0549A559A569A579A8FEF99EF0197F1F7C7
S11301F000C000005D9A5C9A0E948A008FE19EE430
S11302000197F1F700C000000E948A008FEF90E090
S11302100197F1F700C000000E948A008FEF90E080
S11302200197F1F700C000005C980E948A008FEFEC
S113023090E00197F1F700C0000088E20E94C50039
S113024088E00E94C5000E94D30086E00E94C50099
S11302508C2F0E94C500CF9108958CE00E94EB0082
S113026060E081E00E94C90087E690E00E94EB0212
S113027062E084E290E00E94530062E085E290E054
S11302800E94710063E084E290E00E945F008FE7C7
S113029087BD85B5897F85BD85B5816085BD84B5FC
S11302A0826084BD84B58E7F84BDEEE6F0E08081FB
S11302B0826080838CE00E94EB007894FFCF60E042
S11302C080E00E94C90086E091E00E94DB0008956E
S11302D01F920F920FB60F921124CF92DF92EF92DA
S11302E0FF922F933F934F935F936F937F938F93DB
S11302F09F93AF93BF93EF93FF93CF93DF93CDB7C8
S1130300DEB72597DEBFCDBF85E0E0E0F1E0DE019A
S1130310119601900D928A95E1F7809154018130F4
S113032019F120F0823009F446C0DFC080915201F7
S113033090915301019690935301809352010B972E
S113034030F462E085E290E00E947E00D0C062E07A
S113035085E290E00E9471001092530110925201C4
S113036081E080935401C3C0809152019091530164
S1130370019690935301809352011B9B11C01092DC
S113038053011092520180915001909151010196B4
S1130390909351018093500182E080935401A7C04F
S11303A0883E9D4F08F4A3C010925301109252014D
S11303B0109254019CC01B9B0AC0809150019091E3
S11303C051010196909351018093500190C0609126
S11303D050017091510180E090E00E943F032BE7AF
S11303E034E14EE25EE30E94CE0360934C017093CD
S11303F04D0180934E0190934F0110925101109240
S113040050010E940903DC01CB014AE0BE016F5F89
S11304107F4F0E946304C0904C01D0904D01E09046
S11304204E01F0904F0120E030E0A901C701B60170
S11304300E940403882309F44DC020E030E040E02A
S113044050E4C701B6010E94040388235CF40E94AF
S11304505F0160E080E00E94C90087E191E00E94B2
S1130460DB0038C020E030E048EC53E4C701B601BB
S11304700E94040388237CF40E945F0160E080E012
S11304800E94C90081E291E00E94DB00CE01019646
S11304900E94DB001FC020E030E048EC53E4C701B9
S11304A0B6010E94C90318165CF40E945F0160E063
S11304B080E00E94C90088E291E00E94DB000AC04B
S11304C00E945F0160E080E00E94C9008BE391E03C
S11304D00E94DB0010924C0110924D0110924E01CB
S11304E010924F011092540102C0109254010F90C7
S11304F00F900F900F900F90DF91CF91FF91EF919C
S1130500BF91AF919F918F917F916F915F914F9127
S11305103F912F91FF90EF90DF90CF900F900FBEFF
S11305200F901F9018951F920F920FB60F921124DF
S11305302F938F939F93EF93FF938091C00020910B
S1130540C6008C71E0915701EF5FEF7190915601F5
S1130550E91739F0E0935701F0E0E65AFE4F2083A3
S113056001C082E090915501892B80935501FF9140
S1130570EF919F918F912F910F900FBE0F901F902D
S113058018951F920F920FB60F9211248F939F9379
S1130590EF93FF939091590180915801981769F056
S11305A0E0915801EF5FEF71E0935801F0E0E658F5
S11305B0FE4F80818093C60005C0E1ECF0E08081AD
S11305C08F7D8083FF91EF919F918F910F900FBE4C
S11305D00F901F9018951092590110925801109283
S11305E057011092560199231CF422E02093C00075
S11305F090789093C5008093C40088E98093C100EB
S113060086E08093C20008950E947C0308F481E090
S113061008950E9410036894B1110C94C3030895C3
S11306200E94A80388F09F5798F0B92F9927B751D3
S1130630B0F0E1F0660F771F881F991F1AF0BA9582
S1130640C9F714C0B13091F00E94C203B1E008951B
S11306500C94C203672F782F8827B85F39F0B93F0D
S1130660CCF3869577956795B395D9F73EF4909535
S11306708095709561957F4F8F4F9F4F0895E894B3
S113068009C097FB3EF490958095709561957F4FD6
S11306908F4F9F4F9923A9F0F92F96E9BB27939584
S11306A0F695879577956795B795F111F8CFFAF494
S11306B0BB0F11F460FF1BC06F5F7F4F8F4F9F4FC5
S11306C016C0882311F096E911C0772321F09EE823
S11306D0872F762F05C0662371F096E8862F70E089
S11306E060E02AF09A95660F771F881FDAF7880F63
S11306F09695879597F90895990F0008550FAA0BB9
S1130700E0E8FEEF16161706E807F907C0F0121620
S11307101306E407F50798F0621B730B840B950B23
S113072039F40A2661F0232B242B252B21F4089578
S11307300A2609F4A140A6958FEF811D811D089515
S113074057FD9058440F551F59F05F3F71F047957E
S1130750880F97FB991F61F09F3F79F08795089563
S1130760121613061406551FF2CF4695F1DF08C082
S1130770161617061806991FF1CF8695710561059F
S113078008940895E894BB2766277727CB0197F947
S113079008950E947C0308F48FEF08950E94E103FA
S11307A00C9452040E94440438F00E944B0420F03C
S11307B0952311F00C943B040C94410411240C94E3
S11307C0C3030E94A00370F3959FC1F3950F50E0FB
S11307D0551F629FF001729FBB27F00DB11D639FEF
S11307E0AA27F00DB11DAA1F649F6627B00DA11D95
S11307F0661F829F2227B00DA11D621F739FB00D3B
S1130800A11D621F839FA00D611D221F749F3327AA
S1130810A00D611D231F849F600D211D822F762F43
S11308206A2F11249F5750409AF0F1F088234AF020
S1130830EE0FFF1FBB1F661F771F881F915050408C
S1130840A9F79E3F510580F00C943B040C94C3031C
S11308505F3FE4F3983ED4F3869577956795B79513
S1130860F795E7959F5FC1F7FE2B880F911D96952D
S1130870879597F9089597F99F6780E870E060E09D
S113088008959FEF80EC089500240A941616170625
S113089018060906089500240A941216130614066D
S11308A005060895092E0394000C11F4882352F0D0
S11308B0BB0F40F4BF2B11F460FF04C06F5F7F4F88
S11308C08F4F9F4F0895BB274A3031F4992322F468
S11308D0BDE2909581959F4F0C946F04BB27FB015B
S11308E05527AA27880F991FAA1FA41710F0A41B25
S11308F083955051B9F7A05DAA3308F0A95DA1937F
S1130900009779F7B111B1931192CB010C9488043B
S1130910DC01FC01672F71917723E1F7329704C062
S11309207C916D9370836291AE17BF07C8F30895ED
S1070930F894FFCF65
S113093420202020200020202020202020202020CF
S113094420202020202000546F6F20736D616C6C74
S113095400446973743A20004E6F206F626A6563C1
S113096474206F72203E2034303000536F6D6574F0
S10F097468696E67732077726F6E67000D
S9030000FC
