S00C00006C6564732E7372656370
S11300000C9434000C943E000C943E000C943E007E
S11300100C943E000C943E000C943E000C943E0064
S11300200C943E000C943E000C943E000C943E0054
S11300300C943E000C943E000C943E000C943E0044
S11300400C943E000C943E000C943E000C943E0034
S11300500C943E000C943E000C943E000C943E0024
S11300600C943E000C943E0011241FBECFEFD8E048
S1130070DEBFCDBF0E947D000C94AE000C94000046
S113008082309105D1F02CF4009749F0019761F08A
S11300902FC083309105D1F0049709F129C098B19C
S11300A081E0892788B9089598B181E0892788B9C2
S11300B098B182E0892788B9089598B182E08927A8
S11300C088B998B184E0892788B9089598B184E003
S11300D0892788B998B188E0892788B9089598B1A3
S11300E088E0892788B998B180E1892788B908957B
S11300F098B181E0892788B90895389A4098399A47
S113010041983A9A42983B9A43983C9A449850981A
S1130110589A4899FECFC0E0D0E02FEF84E39CE0EA
S1130120215080409040E1F700C00000CE010E94C1
S113013040002196C530D10581F7C4E0D0E02FEF0F
S113014084E39CE0215080409040E1F700C000002F
S1130150CE010E944000219790F7DBCFF894FFCFA7
S9030000FC
