S017000050726F6A6563745F48432D535230342E7372656316
S11300000C9434000C9451000C9451000C94510045
S11300100C9451000C9451000C9451000C94510018
S11300200C9451000C94AB020C9451000C945100AC
S11300300C9451000C9418040C9451000C9451002D
S11300400C94EF010C9451000C9416060C94440685
S11300500C9451000C9451000C9451000C945100D8
S11300600C9451000C94510011241FBECFEFD8E022
S1130070DEBFCDBF11E0A0E0B1E0E2E8F0E102C0F4
S113008005900D92A437B107D9F721E0A4E7B1E0B8
S113009001C01D92AD3DB207E1F70E9442010C94EC
S11300A03F080C940000FC01408121E030E002C0D4
S11300B0220F331F6A95E2F7242B20830895FC0155
S11300C0808121E030E002C0220F331F6A95E2F7FD
S11300D02095822380838081818128232183089530
S11300E0FC01908121E030E002C0220F331F6A95A9
S11300F0E2F72095292320830895FC01408121E023
S113010030E002C0220F331F6A95E2F7242B2083CC
S11301100895FC01408121E030E002C0220F331F2A
S11301206A95E2F7242720830895FC01808190E0FA
S113013002C0959587956A95E2F781700895299A8A
S113014085E08A95F1F7000029980895CF93C82F88
S1130150662311F0289A01C02898549A559A569A01
S1130160579A5F985E985D985C98CC230CF45F9ADC
S1130170C6FD5E9AC5FD5D9AC4FD5C9A0E949F000F
S11301805F985E985D985C98C3FD5F9AC2FD5E9A25
S1130190C1FD5D9AC0FD5C9A0E949F005C9A5D9AC5
S11301A05E9A5F9A87EB9BE00197F1F700C000002D
S11301B0CF91089560E00E94A6000895611104C0E3
S11301C080580E94DA00089580540E94DA0008954D
S11301D081E00E94DA00089561E00E94A60008957B
S11301E0CF93DF93EC012196FC018081882329F0D1
S11301F00E94EC0089918111FBCFDF91CF9108958A
S1130200CF93C82F209A559A219A549A559A569A60
S1130210579A8FEF99EF0197F1F700C000005D9AAC
S11302205C9A0E949F008FE19EE40197F1F700C061
S113023000000E949F008FEF90E00197F1F700C04B
S113024000000E949F008FEF90E00197F1F700C03B
S113025000005C980E949F008FEF90E00197F1F7F7
S113026000C0000088E20E94DA0088E00E94DA0000
S11302700E94E80086E00E94DA008C2F0E94DA00D7
S1130280CF91089562E084E290E00E94530062E01E
S113029085E290E00E94700064E084E290E00E94B5
S11302A0530064E085E290E00E94700063E084E221
S11302B090E00E945F0065E084E290E00E945F00AD
S11302C061E087E290E00E94530062E087E290E000
S11302D00E94530063E087E290E00E94530064E0D0
S11302E087E290E00E94530061E088E290E00E947F
S11302F0700062E088E290E00E94700063E088E2AF
S113030090E00E94700064E088E290E00E94700037
S113031063E08AE290E00E94530062E08AE290E0A7
S11303200E94530061E08AE290E00E94530060E082
S11303308AE290E00E94530060E08BE290E00E9429
S1130340700061E08BE290E00E94700063E08BE259
S113035090E00E94700062E08BE290E00E947000E6
S113036065E087E290E00E94530065E088E290E057
S11303700E9470008CE00E94000160E080E00E9416
S1130380DE0086E091E00E94F00061E080E00E94DF
S1130390DE0086E191E00E94F00087E690E00E9492
S11303A06E0686E291E00E949C0685B5897F85BD34
S11303B085B5816085BDEEE6F0E080818160808353
S11303C0E1E8F0E080818B7F80838081836080839B
S11303D0EFE6F0E08081816080837894FFCF1F9204
S11303E00F920FB60F9211242F933F934F935F9365
S11303F06F937F938F939F93AF93BF93EF93FF93E9
S1130400809188019091890101969093890180934C
S1130410880120918701222319F02130E9F088C056
S113042062E085E290E00E947D0064E085E290E075
S11304300E947D0025E32A95F1F7000062E085E241
S113044090E00E94700064E085E290E00E947000F9
S113045081E0809387016EC0873A9E4010F563E087
S113046083E290E00E949500882349F08091850101
S1130470909186010196909386018093850165E0B1
S113048083E290E00E949500882309F453C0809190
S11304908301909184010196909384018093830158
S11304A049C0109289011092880160918501709170
S11304B0860180E090E00E94E60626E933E44BE8FA
S11304C05CE30E94750720E030E040E851E40E94BC
S11304D0750760938F0170939001809391019093BD
S11304E09201609183017091840180E090E00E9408
S11304F0E60626E933E44BE85CE30E94750720E056
S113050030E040E851E40E94750760938B017093DA
S11305108C0180938D0190938E011092860110922C
S1130520850110928401109283011092870102C008
S113053010928701FF91EF91BF91AF919F918F919D
S11305407F916F915F914F913F912F910F900FBECB
S11305500F901F9018951F920F920FB60F921124AF
S11305602F933F934F935F936F937F938F939F93B7
S1130570AF93BF93EF93FF93809180018F5F80933C
S1130580800165E088E290E00E94890090918001FA
S113059080918A01981738F0E0E7F0E080818E7F3F
S11305A0808310928001FF91EF91BF91AF919F9151
S11305B08F917F916F915F914F913F912F910F9008
S11305C00FBE0F901F901895682F87E00E94DE00E1
S11305D081E391E00E94F0000895CF92DF92EF92C0
S11305E0FF921F93CF93DF93CDB7DEB72D970FB64E
S11305F0F894DEBF0FBECDBF6E837F838887998753
S11306002A873B874C875D8785E0E0E0F1E0DE01E7
S1130610119601900D928A95E1F72E813F814885CC
S1130620598560917C0170917D0180917E0190914A
S11306307F010E94AB06882309F4DCC08E819F8170
S1130640A885B98580937C0190937D01A0937E0158
S1130650B0937F018E819F81A885B98580937801AD
S113066090937901A0937A01B0937B0186E0E0E056
S1130670F1E0DE01119601900D928A95E1F72A8549
S11306803B854C855D856091740170917501809105
S11306907601909177010E94AB06882319F18A852F
S11306A09B85AC85BD858093740190937501A0935F
S11306B07601B09377018A859B85AC85BD8580934F
S11306C0780190937901A0937A01B0937B0185E03E
S11306D0EFE6F1E0DE01119601900D928A95E1F7C3
S11306E011E001C010E0609178017091790180916E
S11306F07A0190917B010E94B006DC01CB014AE0B3
S113070068ED71E00E940A08C0907801D0907901E8
S1130710E0907A01F0907B0120E030E040E050E48A
S1130720C701B6010E94AB068823C4F4812F0E943E
S1130730E402612F87E00E94DE0087E391E00E94DB
S1130740F000CE0101960E949C068AE391E00E948B
S11307509C068FE291E00E949C065CC020E030E0A1
S113076048EC53E4C701B6010E94AB06181604F125
S1130770812F0E94E402612F88E00E94DE0088ED50
S113078091E00E94F000CE0101960E949C068DE447
S113079091E00E949C0688ED91E00E949C0681E213
S11307A091E00E949C068FE291E00E949C0632C078
S11307B020E030E048EC53E4C701B6010E94700722
S11307C0181644F5812F0E94E402612F87E00E94ED
S11307D0DE0089E591E00E94F000CE0101960E94BE
S11307E09C068EE591E00E949C068FE291E00E94B7
S11307F09C0610C02A853B854C855D8560917401FB
S11308007091750180917601909177010E94AB06F9
S1130810811145CF2D960FB6F894DEBF0FBECDBF24
S1130820DF91CF911F91FF90EF90DF90CF900895CB
S11308301F920F920FB60F9211242F933F934F9351
S11308405F936F937F938F939F93AF93BF93EF9334
S1130850FF93E1EBF0E080818E7F8083808186606E
S1130860808320918B0130918C0140918D015091B6
S11308708E0160918F01709190018091910190910E
S113088092010E94ED0260918F017091900180911C
S113089091019091920120918B0130918C014091B2
S11308A08D0150918E010E94AB0688237CF46091E7
S11308B08F017091900180919101909192010E9419
S11308C0B70670938201609381010EC060918B0121
S11308D070918C0180918D0190918E010E94B706D8
S11308E070938201609381018091810190918201D2
S11308F08031910588F48AEF80938A01E1EBF0E07E
S113090080818D7F8083808185608083E0E7F0E053
S113091080818160808329C08333910548F482E318
S113092080938A01E0E7F0E08081816080831DC0CC
S11309308536910548F48AE080938A01E0E7F0E087
S113094080818160808311C08E37910548F485E0F1
S113095080938A01E0E7F0E080818160808305C0B4
S1130960E0E7F0E080818E7F808360918F01709159
S11309709001809191019091920120E030E040E754
S113098051E40E94AB061816ACF061E088E290E0F6
S11309900E947D0062E088E290E00E947D0063E0B6
S11309A088E290E00E947D0064E088E290E00E948A
S11309B07D0083C060918F017091900180919101BD
S11309C09091920120E030E048E452E40E94AB06AA
S11309D01816ACF061E088E290E00E947D0062E0CD
S11309E088E290E00E947D0063E088E290E00E944B
S11309F07D0064E088E290E00E9470005EC0609137
S1130A008F0170919001809191019091920120E069
S1130A1030E048EC52E40E94AB061816ACF061E0FA
S1130A2088E290E00E947D0062E088E290E00E940B
S1130A307D0063E088E290E00E94700064E088E258
S1130A4090E00E94700039C060918F017091900114
S1130A50809191019091920120E030E04AEF52E4BC
S1130A600E94AB061816ACF061E088E290E00E94A8
S1130A707D0062E088E290E00E94700063E088E21A
S1130A8090E00E94700064E088E290E00E947000B0
S1130A9014C061E088E290E00E94700062E088E2A5
S1130AA090E00E94700063E088E290E00E94700091
S1130AB064E088E290E00E94700060918B01709184
S1130AC08C0180918D0190918E0120E030E040E70F
S1130AD051E40E94AB061816ACF063E08BE290E0A0
S1130AE00E947D0062E08BE290E00E947D0061E064
S1130AF08BE290E00E947D0060E08BE290E00E9437
S1130B007D0083C060918B0170918C0180918D0177
S1130B1090918E0120E030E048E452E40E94AB065C
S1130B201816ACF063E08BE290E00E947D0062E076
S1130B308BE290E00E947D0061E08BE290E00E94F5
S1130B407D0060E08BE290E00E9470005EC06091E6
S1130B508B0170918C0180918D0190918E0120E028
S1130B6030E048EC52E40E94AB061816ACF063E0A7
S1130B708BE290E00E947D0062E08BE290E00E94B4
S1130B807D0061E08BE290E00E94700060E08BE207
S1130B9090E00E94700039C060918B0170918C01CB
S1130BA080918D0190918E0120E030E04AEF52E473
S1130BB00E94AB061816ACF063E08BE290E00E9452
S1130BC07D0062E08BE290E00E94700061E08BE2C5
S1130BD090E00E94700060E08BE290E00E94700060
S1130BE014C063E08BE290E00E94700062E08BE24C
S1130BF090E00E94700061E08BE290E00E9470003F
S1130C0060E08BE290E00E947000FF91EF91BF9151
S1130C10AF919F918F917F916F915F914F913F9190
S1130C202F910F900FBE0F901F9018951F920F9247
S1130C300FB60F9211242F938F939F93EF93FF93EB
S1130C408091C0002091C6008C71E0919501EF5F06
S1130C50EF7190919401E91739F0E0939501F0E078
S1130C60E856FE4F208301C082E090919301892BC6
S1130C7080939301FF91EF919F918F912F910F900A
S1130C800FBE0F901F9018951F920F920FB60F92E0
S1130C9011248F939F93EF93FF93909197018091E9
S1130CA09601981769F0E0919601EF5FEF71E09378
S1130CB09601F0E0E854FE4F80818093C60005C0A1
S1130CC0E1ECF0E080818F7D8083FF91EF919F9133
S1130CD08F910F900FBE0F901F901895109297014F
S1130CE010929601109295011092940199231CF48C
S1130CF022E02093C00090789093C5008093C400B4
S1130D0088E98093C10086E08093C2000895209111
S1130D1097012F5F2F71909196012917E1F3E22F2C
S1130D20F0E0E854FE4F808320939701E1ECF0E07B
S1130D308081806280830895CF93DF93EC01888162
S1130D40882331F021960E94870689918111FBCF77
S1130D50DF91CF9108950E94230708F481E008955C
S1130D600E94B7066894B1110C946A0708950E9412
S1130D704F0788F09F5798F0B92F9927B751B0F0D3
S1130D80E1F0660F771F881F991F1AF0BA95C9F70B
S1130D9014C0B13091F00E946907B1E008950C9439
S1130DA06907672F782F8827B85F39F0B93FCCF3EC
S1130DB0869577956795B395D9F73EF49095809588
S1130DC0709561957F4F8F4F9F4F0895E89409C0A8
S1130DD097FB3EF490958095709561957F4F8F4F6A
S1130DE09F4F9923A9F0F92F96E9BB279395F69580
S1130DF0879577956795B795F111F8CFFAF4BB0FFE
S1130E0011F460FF1BC06F5F7F4F8F4F9F4F16C061
S1130E10882311F096E911C0772321F09EE8872FEB
S1130E20762F05C0662371F096E8862F70E060E0A7
S1130E302AF09A95660F771F881FDAF7880F969520
S1130E40879597F90895990F0008550FAA0BE0E8C4
S1130E50FEEF16161706E807F907C0F01216130678
S1130E60E407F50798F0621B730B840B950B39F4B8
S1130E700A2661F0232B242B252B21F408950A261E
S1130E8009F4A140A6958FEF811D811D089557FD9A
S1130E909058440F551F59F05F3F71F04795880FE4
S1130EA097FB991F61F09F3F79F08795089512167B
S1130EB013061406551FF2CF4695F1DF08C0161627
S1130EC017061806991FF1CF8695710561050894D8
S1130ED00895E894BB2766277727CB0197F90895EF
S1130EE00E94230708F48FEF08950E9488070C944A
S1130EF0F9070E94EB0738F00E94F20720F09523CF
S1130F0011F00C94E2070C94E80711240C946A077E
S1130F100E94470770F3959FC1F3950F50E0551F4A
S1130F20629FF001729FBB27F00DB11D639FAA273A
S1130F30F00DB11DAA1F649F6627B00DA11D661F89
S1130F40829F2227B00DA11D621F739FB00DA11DAA
S1130F50621F839FA00D611D221F749F3327A00D64
S1130F60611D231F849F600D211D822F762F6A2F00
S1130F7011249F5750409AF0F1F088234AF0EE0F65
S1130F80FF1FBB1F661F771F881F91505040A9F792
S1130F909E3F510580F00C94E2070C946A075F3F72
S1130FA0E4F3983ED4F3869577956795B795F795CE
S1130FB0E7959F5FC1F7FE2B880F911D9695879546
S1130FC097F9089597F99F6780E870E060E00895C5
S1130FD09FEF80EC089500240A941616170618064D
S1130FE00906089500240A94121613061406050629
S1130FF00895092E0394000C11F4882352F0BB0FBA
S113100040F4BF2B11F460FF04C06F5F7F4F8F4F1C
S11310109F4F0895BB274A3031F4992322F4BDE24F
S1131020909581959F4F0C941608BB27FB0155277B
S1131030AA27880F991FAA1FA41710F0A41B839531
S11310405051B9F7A05DAA3308F0A95DA1930097A8
S113105079F7B111B1931192CB010C942F08DC01F3
S1131060FC01672F71917723E1F7329704C07C91DB
S11310706D9370836291AE17BF07C8F30895F89417
S1051080FFCF9C
S113108246726F6E740046726F6E743A202020208E
S1131092202020636D00204261636B3A20202020CF
S11310A2202020636D0057656C636F6D652E0A0AFC
S11310B2002020202020003C3200206F626A6563F9
S11310C27420746F6F20636C6F73652E00206469E3
S11310D27374616E63653A20003E34303000206FD1
S11310E2626A65637420746F6F206661722E0042B7
S10710F261636B00C7
S9030000FC
