S017000050726F6A6563745F48432D535230342E7372656316
S11300000C9434000C9451000C9451000C94510045
S11300100C9451000C9451000C9451000C94510018
S11300200C9451000C94AB020C9451000C945100AC
S11300300C9451000C941C040C9451000C94510029
S11300400C94EF010C9451000C941A060C9448067D
S11300500C9451000C9451000C9451000C945100D8
S11300600C9451000C94510011241FBECFEFD8E022
S1130070DEBFCDBF11E0A0E0B1E0EAE8F0E102C0EC
S113008005900D92A438B107D9F721E0A4E8B1E0B6
S113009001C01D92AD3EB207E1F70E9442010C94EB
S11300A043080C940000FC01408121E030E002C0D0
S11300B0220F331F6A95E2F7242B20830895FC0155
S11300C0808121E030E002C0220F331F6A95E2F7FD
S11300D02095822380838081818128232183089530
S11300E0FC01908121E030E002C0220F331F6A95A9
S11300F0E2F72095292320830895FC01408121E023
S113010030E002C0220F331F6A95E2F7242B2083CC
S11301100895FC01408121E030E002C0220F331F2A
S11301206A95E2F7242720830895FC01808190E0FA
S113013002C0959587956A95E2F781700895299A8A
S113014085E08A95F1F7000029980895CF93C82F88
S1130150662311F0289A01C02898549A559A569A01
S1130160579A5F985E985D985C98CC230CF45F9ADC
S1130170C6FD5E9AC5FD5D9AC4FD5C9A0E949F000F
S11301805F985E985D985C98C3FD5F9AC2FD5E9A25
S1130190C1FD5D9AC0FD5C9A0E949F005C9A5D9AC5
S11301A05E9A5F9A87EB9BE00197F1F700C000002D
S11301B0CF91089560E00E94A6000895611104C0E3
S11301C080580E94DA00089580540E94DA0008954D
S11301D081E00E94DA00089561E00E94A60008957B
S11301E0CF93DF93EC012196FC018081882329F0D1
S11301F00E94EC0089918111FBCFDF91CF9108958A
S1130200CF93C82F209A559A219A549A559A569A60
S1130210579A8FEF99EF0197F1F700C000005D9AAC
S11302205C9A0E949F008FE19EE40197F1F700C061
S113023000000E949F008FEF90E00197F1F700C04B
S113024000000E949F008FEF90E00197F1F700C03B
S113025000005C980E949F008FEF90E00197F1F7F7
S113026000C0000088E20E94DA0088E00E94DA0000
S11302700E94E80086E00E94DA008C2F0E94DA00D7
S1130280CF91089562E084E290E00E94530062E01E
S113029085E290E00E94700064E084E290E00E94B5
S11302A0530064E085E290E00E94700063E084E221
S11302B090E00E945F0065E084E290E00E945F00AD
S11302C061E087E290E00E94530062E087E290E000
S11302D00E94530063E087E290E00E94530064E0D0
S11302E087E290E00E94530061E088E290E00E947F
S11302F0700062E088E290E00E94700063E088E2AF
S113030090E00E94700064E088E290E00E94700037
S113031063E08AE290E00E94530062E08AE290E0A7
S11303200E94530061E08AE290E00E94530060E082
S11303308AE290E00E94530060E08BE290E00E9429
S1130340700061E08BE290E00E94700063E08BE259
S113035090E00E94700062E08BE290E00E947000E6
S113036065E087E290E00E94530065E088E290E057
S11303700E9470008CE00E94000160E080E00E9416
S1130380DE0086E091E00E94F00061E080E00E94DF
S1130390DE0087E191E00E94F00087E690E00E9491
S11303A0720688E291E00E94A00685B5897F85BD2A
S11303B085B5816085BDEEE6F0E080818160808353
S11303C0E1E8F0E080818B7F80838081836080839B
S11303D0EFE6F0E08081816080837894FFCF1F9204
S11303E00F920FB60F9211242F933F934F935F9365
S11303F06F937F938F939F93AF93BF93EF93FF93E9
S1130400809198019091990101969093990180931C
S1130410980120919701222319F02130E9F088C036
S113042062E085E290E00E947D0064E085E290E075
S11304300E947D0025E32A95F1F7000062E085E241
S113044090E00E94700064E085E290E00E947000F9
S113045081E0809397016EC0873A9E4010F563E077
S113046083E290E00E949500882349F080919501F1
S1130470909196010196909396018093950165E081
S113048083E290E00E949500882309F453C0809190
S11304909301909194010196909394018093930118
S11304A049C0109299011092980160919501709140
S11304B0960180E090E00E94EA0626E933E44BE8E6
S11304C05CE30E94790720E030E040E851E40E94B8
S11304D0790760939F017093A0018093A101909389
S11304E0A201609193017091940180E090E00E94D8
S11304F0EA0626E933E44BE85CE30E94790720E04E
S113050030E040E851E40E94790760939B017093C6
S11305109C0180939D0190939E01109296011092EC
S1130520950110929401109293011092970102C0C8
S113053010929701FF91EF91BF91AF919F918F918D
S11305407F916F915F914F913F912F910F900FBECB
S11305500F901F9018951F920F920FB60F921124AF
S11305602F933F934F935F936F937F938F939F93B7
S1130570AF93BF93EF93FF93809190018F5F80932C
S1130580900165E088E290E00E94890090919001DA
S113059080919A01981738F0E0E7F0E080818E7F2F
S11305A0808310929001FF91EF91BF91AF919F9141
S11305B08F917F916F915F914F913F912F910F9008
S11305C00FBE0F901F901895682F87E00E94DE00E1
S11305D083E391E00E94F0000895CF92DF92EF92BE
S11305E0FF921F93CF93DF93CDB7DEB72D970FB64E
S11305F0F894DEBF0FBECDBF6E837F838887998753
S11306002A873B874C875D8785E0E0E0F1E0DE01E7
S1130610119601900D928A95E1F72E813F814885CC
S1130620598560918C0170918D0180918E0190911A
S11306308F010E94AF06882309F4E0C08E819F8158
S1130640A885B98580938C0190938D01A0938E0128
S1130650B0938F018E819F81A885B985809388018D
S113066090938901A0938A01B0938B0186E0E0E026
S1130670F1E0DE01119601900D928A95E1F72A8549
S11306803B854C855D8560918401709185018091E5
S11306908601909187010E94AF06882319F18A850B
S11306A09B85AC85BD858093840190938501A0933F
S11306B08601B09387018A859B85AC85BD8580932F
S11306C0880190938901A0938A01B0938B0185E0FE
S11306D0EFE7F1E0DE01119601900D928A95E1F7C2
S11306E011E001C010E0609188017091890180914E
S11306F08A0190918B010E94B406DC01CB014AE08F
S113070068EE71E00E940E08C0908801D0908901C3
S1130710E0908A01F0908B0120E030E040E050E46A
S1130720C701B6010E94AF068823C4F4812F0E943A
S1130730E402612F87E00E94DE008CE391E00E94D6
S1130740F000CE0101960E94A00682E491E00E948E
S1130750A00681E391E00E94A00660C020E030E0A2
S113076048EC53E4C701B6010E94AF06181624F101
S1130770812F0E94E402612F88E00E94DE0088EE4F
S113078091E00E94F00085E591E00E94F000CE0126
S113079001960E94A0068AE591E00E94A00688EED8
S11307A091E00E94A00685E591E00E94A00681E305
S11307B091E00E94A00632C020E030E048EC53E40F
S11307C0C701B6010E947407181644F5812F0E94D0
S11307D0E402612F87E00E94DE0086E691E00E9439
S11307E0F000CE0101960E94A0068EE691E00E94E0
S11307F0A00681E391E00E94A00610C02A853B85F3
S11308004C855D856091840170918501809186019C
S1130810909187010E94AF06811141CF2D960FB6AA
S1130820F894DEBF0FBECDBFDF91CF911F91FF9033
S1130830EF90DF90CF9008951F920F920FB60F9212
S113084011242F933F934F935F936F937F938F93D1
S11308509F93AF93BF93EF93FF93E1EBF0E080811D
S11308608E7F808380818660808320919B0130917C
S11308709C0140919D0150919E0160919F01709156
S1130880A0018091A1019091A2010E94ED026091CA
S11308909F017091A0018091A1019091A2012091EA
S11308A09B0130919C0140919D0150919E010E94B9
S11308B0AF0688237CF460919F017091A001809120
S11308C0A1019091A2010E94BB06709392016093D2
S11308D091010EC060919B0170919C0180919D01DA
S11308E090919E010E94BB067093920160939101C6
S11308F080919101909192018031910588F48AEF61
S113090080939A01E1EBF0E080818D7F8083808188
S113091085608083E0E7F0E080818160808329C086
S11309208333910548F482E380939A01E0E7F0E091
S11309308081816080831DC08536910548F48AE0FA
S113094080939A01E0E7F0E080818160808311C0A8
S11309508E37910548F485E080939A01E0E7F0E052
S113096080818160808305C0E0E7F0E080818E7F34
S1130970808360919F017091A0018091A101909169
S1130980A20120E030E040E751E40E94AF061816CF
S1130990ACF061E088E290E00E947D0062E088E2D1
S11309A090E00E947D0063E088E290E00E947D0078
S11309B064E088E290E00E947D0083C060919F0122
S11309C07091A0018091A1019091A20120E030E0FA
S11309D048E452E40E94AF061816ACF061E088E2E5
S11309E090E00E947D0062E088E290E00E947D0039
S11309F063E088E290E00E947D0064E088E290E099
S1130A000E9470005EC060919F017091A00180916E
S1130A10A1019091A20120E030E048EC52E40E9450
S1130A20AF061816ACF061E088E290E00E947D0009
S1130A3062E088E290E00E947D0063E088E290E05A
S1130A400E94700064E088E290E00E94700039C067
S1130A5060919F017091A0018091A1019091A201E8
S1130A6020E030E04AEF52E40E94AF061816ACF0E2
S1130A7061E088E290E00E947D0062E088E290E01C
S1130A800E94700063E088E290E00E94700064E0DD
S1130A9088E290E00E94700014C061E088E290E077
S1130AA00E94700062E088E290E00E94700063E0BF
S1130AB088E290E00E94700064E088E290E00E9486
S1130AC0700060919B0170919C0180919D019091B7
S1130AD09E0120E030E040E751E40E94AF06181682
S1130AE0ACF063E08BE290E00E947D0062E08BE278
S1130AF090E00E947D0061E08BE290E00E947D0026
S1130B0060E08BE290E00E947D0083C060919B01D5
S1130B1070919C0180919D0190919E0120E030E0B4
S1130B2048E452E40E94AF061816ACF063E08BE28E
S1130B3090E00E947D0062E08BE290E00E947D00E4
S1130B4061E08BE290E00E947D0060E08BE290E047
S1130B500E9470005EC060919B0170919C01809125
S1130B609D0190919E0120E030E048EC52E40E9407
S1130B70AF061816ACF063E08BE290E00E947D00B3
S1130B8062E08BE290E00E947D0061E08BE290E005
S1130B900E94700060E08BE290E00E94700039C017
S1130BA060919B0170919C0180919D0190919E01A7
S1130BB020E030E04AEF52E40E94AF061816ACF091
S1130BC063E08BE290E00E947D0062E08BE290E0C3
S1130BD00E94700061E08BE290E00E94700060E08F
S1130BE08BE290E00E94700014C063E08BE290E01E
S1130BF00E94700062E08BE290E00E94700061E06D
S1130C008BE290E00E94700060E08BE290E00E9432
S1130C107000FF91EF91BF91AF919F918F917F9160
S1130C206F915F914F913F912F910F900FBE0F9055
S1130C301F9018951F920F920FB60F9211242F93A5
S1130C408F939F93EF93FF938091C0002091C600F0
S1130C508C71E091A501EF5FEF719091A401E91708
S1130C6039F0E093A501F0E0E855FE4F208301C080
S1130C7082E09091A301892B8093A301FF91EF91CE
S1130C809F918F912F910F900FBE0F901F901895E9
S1130C901F920F920FB60F9211248F939F93EF938D
S1130CA0FF939091A7018091A601981769F0E091B4
S1130CB0A601EF5FEF71E093A601F0E0E853FE4F69
S1130CC080818093C60005C0E1ECF0E080818F7DD7
S1130CD08083FF91EF919F918F910F900FBE0F90A2
S1130CE01F9018951092A7011092A6011092A501C9
S1130CF01092A40199231CF422E02093C000907860
S1130D009093C5008093C40088E98093C10086E075
S1130D108093C20008952091A7012F5F2F719091B5
S1130D20A6012917E1F3E22FF0E0E853FE4F808398
S1130D302093A701E1ECF0E0808180628083089534
S1130D40CF93DF93EC018881882331F021960E94B0
S1130D508B0689918111FBCFDF91CF9108950E9479
S1130D60270708F481E008950E94BB066894B11136
S1130D700C946E0708950E94530788F09F5798F0CB
S1130D80B92F9927B751B0F0E1F0660F771F881F8C
S1130D90991F1AF0BA95C9F714C0B13091F00E94A6
S1130DA06D07B1E008950C946D07672F782F88279D
S1130DB0B85F39F0B93FCCF3869577956795B395CD
S1130DC0D9F73EF490958095709561957F4F8F4F3C
S1130DD09F4F0895E89409C097FB3EF49095809541
S1130DE0709561957F4F8F4F9F4F9923A9F0F92FED
S1130DF096E9BB279395F695879577956795B7956B
S1130E00F111F8CFFAF4BB0F11F460FF1BC06F5F50
S1130E107F4F8F4F9F4F16C0882311F096E911C062
S1130E20772321F09EE8872F762F05C0662371F083
S1130E3096E8862F70E060E02AF09A95660F771F97
S1130E40881FDAF7880F9695879597F90895990F73
S1130E500008550FAA0BE0E8FEEF16161706E80780
S1130E60F907C0F012161306E407F50798F0621BA1
S1130E70730B840B950B39F40A2661F0232B242B76
S1130E80252B21F408950A2609F4A140A6958FEF95
S1130E90811D811D089557FD9058440F551F59F029
S1130EA05F3F71F04795880F97FB991F61F09F3F53
S1130EB079F087950895121613061406551FF2CF7C
S1130EC04695F1DF08C0161617061806991FF1CFCC
S1130ED086957105610508940895E894BB276627F3
S1130EE07727CB0197F908950E94270708F48FEF1D
S1130EF008950E948C070C94FD070E94EF0738F0B8
S1130F000E94F60720F0952311F00C94E6070C9448
S1130F10EC0711240C946E070E944B0770F3959F05
S1130F20C1F3950F50E0551F629FF001729FBB27DC
S1130F30F00DB11D639FAA27F00DB11DAA1F649F78
S1130F406627B00DA11D661F829F2227B00DA11D2B
S1130F50621F739FB00DA11D621F839FA00D611DB1
S1130F60221F749F3327A00D611D231F849F600DD2
S1130F70211D822F762F6A2F11249F5750409AF0FB
S1130F80F1F088234AF0EE0FFF1FBB1F661F771F87
S1130F90881F91505040A9F79E3F510580F00C9452
S1130FA0E6070C946E075F3FE4F3983ED4F386950E
S1130FB077956795B795F795E7959F5FC1F7FE2BF2
S1130FC0880F911D9695879597F9089597F99F67CE
S1130FD080E870E060E008959FEF80EC08950024BD
S1130FE00A941616170618060906089500240A948A
S1130FF012161306140605060895092E0394000C10
S113100011F4882352F0BB0F40F4BF2B11F460FF9E
S113101004C06F5F7F4F8F4F9F4F0895BB274A30A7
S113102031F4992322F4BDE2909581959F4F0C945D
S11310301A08BB27FB015527AA27880F991FAA1F47
S1131040A41710F0A41B83955051B9F7A05DAA33DF
S113105008F0A95DA193009779F7B111B1931192AA
S1131060CB010C943308DC01FC01672F71917723C9
S1131070E1F7329704C07C916D9370836291AE174F
S10D1080BF07C8F30895F894FFCFEA
S113108A46726F6E740046726F6E743A20537461BE
S113109A6E6462792E2E00204261636B3A20537487
S11310AA616E6462792E2E0057656C636F6D652ECE
S11310BA0A0A002020202020202020003C3220631D
S11310CA6D00206F626A65637420746F6F20636CAD
S11310DA6F73652E002020636D0020646973746148
S11310EA6E63653A20003E34303020636D00206F11
S11310FA626A65637420746F6F206661722E00429F
S107110A61636B00AE
S9030000FC
