S00F000068632D737230342E73726563D4
S11300000C9434000C9451000C9451000C94510045
S11300100C9451000C9451000C9451000C94510018
S11300200C9451000C946B030C9451000C945100EB
S11300300C9451000C94B1020C9451000C94510096
S11300400C94C9010C9451000C9475030C94A303F3
S11300500C9451000C9451000C9451000C945100D8
S11300600C9451000C94510011241FBECFEFD8E022
S1130070DEBFCDBF11E0A0E0B1E0ECE5FAE002C0E4
S113008005900D92AE31B107D9F721E0AEE1B1E0B0
S113009001C01D92A03BB207E1F70E9436010C9407
S11300A02C050C940000FC01408121E030E002C0EA
S11300B0220F331F6A95E2F7242B20830895FC0155
S11300C0808121E030E002C0220F331F6A95E2F7FD
S11300D02095822380838081818128232183089530
S11300E0FC01908121E030E002C0220F331F6A95A9
S11300F0E2F72095292320830895FC01408121E023
S113010030E002C0220F331F6A95E2F7242B2083CC
S11301100895FC01808190E002C0959587956A95C9
S1130120E2F781700895299A85E08A95F1F7000035
S113013029980895CF93C82F662311F0289A01C0F7
S11301402898549A559A569A579A5F985E985D984B
S11301505C98CC230CF45F9AC6FD5E9AC5FD5D9A4B
S1130160C4FD5C9A0E9493005F985E985D985C98C9
S1130170C3FD5F9AC2FD5E9AC1FD5D9AC0FD5C9AA3
S11301800E9493005C9A5D9A5E9A5F9A87EB9BE06B
S11301900197F1F700C00000CF91089560E00E943C
S11301A09A000895611104C080580E94CE000895F9
S11301B080540E94CE00089581E00E94CE000895EC
S11301C061E00E949A000895CF93DF93EC01219699
S11301D0FC018081882329F00E94E000899181112B
S11301E0FBCFDF91CF910895CF93C82F209A559AD2
S11301F0219A549A559A569A579A8FEF99EF0197E4
S1130200F1F700C000005D9A5C9A0E9493008FE1B0
S11302109EE40197F1F700C000000E9493008FEF65
S113022090E00197F1F700C000000E9493008FEF67
S113023090E00197F1F700C000005C980E949300E1
S11302408FEF90E00197F1F700C0000088E20E9470
S1130250CE0088E00E94CE000E94DC0086E00E946E
S1130260CE008C2F0E94CE00CF9108958CE00E9486
S1130270F40060E081E00E94D2008AE091E00E94F4
S1130280E40061E081E00E94D20082E191E00E94FA
S1130290E40062E084E290E00E94530062E085E2C0
S11302A090E00E94700063E084E290E00E945F00AE
S11302B062E084E290E00E94530062E085E290E014
S11302C00E94700063E084E290E00E945F0061E0BD
S11302D087E290E00E94530061E088E290E00E948F
S11302E0700062E087E290E00E94530062E088E2DE
S11302F090E00E94700063E087E290E00E94530067
S113030063E088E290E00E94700064E087E290E09D
S11303100E94530064E088E290E00E94700065E06F
S113032087E290E00E94530085B5897F85BD85B53D
S1130330816085BDEEE6F0E0808181608083E1E844
S1130340F0E080818B7F8083808183608083EFE60F
S1130350F0E0808181608083E1EBF0E08081876060
S11303608083E0E7F0E08081816080837894FFCF30
S11303706817790728F09093AB018093AA0104C011
S11303807093AB016093AA018091AA019091AB0193
S113039008951F920F920FB60F9211242F933F933B
S11303A04F935F936F937F938F939F93AF93BF9379
S11303B0EF93FF93809123019091240101969093F0
S11303C0240180932301209122012130F1F020F0B7
S11303D0223009F451C0B2C0029708F0B1C062E003
S11303E085E290E00E947D0064E085E290E00E9456
S11303F07D0081E08093220110922101109220015E
S113040010921F0110921E019BC062E085E290E0F1
S11304100E94700064E085E290E00E947000809188
S11304202301909124018F3D9F4010F563E083E206
S113043090E00E948900882349F0809120019091E6
S113044021010196909321018093200165E083E2CC
S113045090E00E948900882309F472C080911E01F3
S113046090911F01019690931F0180931E0168C013
S113047082E08093220164C0609120017091210187
S113048068307105E8F062957295707F7627607F19
S1130490762780E090E00E94FC0326E933E44BE8F1
S11304A05CE30E9462040E94CD03DC01CB019093C3
S11304B0AD018093AC014AE065E071E00E94F7046D
S11304C060911E0170911F0168307105E8F062951A
S11304D07295707F7627607F762780E090E00E9497
S11304E0FC0326E933E44BE85CE30E9462040E94C7
S11304F0CD03DC01CB019093AF018093AE014AE0C0
S113050060E071E00E94F70460911E0170911F0188
S113051080912001909121010E94B8019093AB0138
S11305208093AA01109221011092200110921F01C0
S113053010921E01109224011092230110922201A4
S1130540FF91EF91BF91AF919F918F917F916F91A7
S11305505F914F913F912F910F900FBE0F901F907D
S113056018951F920F920FB60F9211242F933F9359
S11305704F935F936F937F938F939F93AF93BF93A7
S1130580EF93FF9360E088E00E94D20089E191E05C
S11305900E94E40060E088E00E94D20085E091E0DF
S11305A00E94E40061E088E00E94D20089E191E0C9
S11305B00E94E40061E088E00E94D20080E091E0C3
S11305C00E94E4008091AA019091AB018B309105C7
S11305D0A8F461E088E290E00E947D0062E088E295
S11305E090E00E947D0063E088E290E00E947D003C
S11305F064E088E290E00E947D005CC08333910552
S1130600A8F461E088E290E00E947D0062E088E264
S113061090E00E947D0063E088E290E00E947D000B
S113062064E088E290E00E94700044C08536910541
S1130630A8F461E088E290E00E947D0062E088E234
S113064090E00E947D0063E088E290E00E947000E8
S113065064E088E290E00E9470002CC0893C91051F
S1130660A8F461E088E290E00E947D0062E088E204
S113067090E00E94700063E088E290E00E947000C5
S113068064E088E290E00E94700014C061E088E2B7
S113069090E00E94700062E088E290E00E947000A6
S11306A063E088E290E00E94700064E088E290E0F9
S11306B00E947000FF91EF91BF91AF919F918F9134
S11306C07F916F915F914F913F912F910F900FBE4A
S11306D00F901F9018951F920F920FB60F9211242E
S11306E00F900FBE0F901F9018951F920F920FB688
S11306F00F9211242F938F939F93EF93FF938091E5
S1130700C0002091C6008C71E0912701EF5FEF7368
S113071090912601E91739F0E0932701F0E0E65DB6
S1130720FE4F208301C082E090912501892B8093A4
S11307302501FF91EF919F918F912F910F900FBE03
S11307400F901F9018951F920F920FB60F921124BD
S11307508F939F93EF93FF939091290180912801A8
S1130760981769F0E0912801EF5FEF73E093280197
S1130770F0E0E659FE4F80818093C60005C0E1ECAD
S1130780F0E080818F7D8083FF91EF919F918F9125
S11307900F900FBE0F901F9018950E94410488F08F
S11307A09F5798F0B92F9927B751B0F0E1F0660F31
S11307B0771F881F991F1AF0BA95C9F714C0B13072
S11307C091F00E945B04B1E008950C945B04672FE0
S11307D0782F8827B85F39F0B93FCCF386957795A1
S11307E06795B395D9F73EF490958095709561958A
S11307F07F4F8F4F9F4F0895E89409C097FB3EF4B5
S113080090958095709561957F4F8F4F9F4F992359
S1130810A9F0F92F96E9BB279395F69587957795D7
S11308206795B795F111F8CFFAF4BB0F11F460FF97
S11308301BC06F5F7F4F8F4F9F4F16C0882311F0EF
S113084096E911C0772321F09EE8872F762F05C003
S1130850662371F096E8862F70E060E02AF09A959E
S1130860660F771F881FDAF7880F9695879597F993
S1130870089557FD9058440F551F59F05F3F71F08C
S11308804795880F97FB991F61F09F3F79F08795F3
S11308900895121613061406551FF2CF4695F1DF7C
S11308A008C0161617061806991FF1CF869571050C
S11308B0610508940895E894BB2766277727CB0140
S11308C097F908950E9475040C94E6040E94D804D4
S11308D038F00E94DF0420F0952311F00C94CF042B
S11308E00C94D50411240C945C040E94390470F314
S11308F0959FC1F3950F50E0551F629FF001729FC1
S1130900BB27F00DB11D639FAA27F00DB11DAA1FCF
S1130910649F6627B00DA11D661F829F2227B00D1C
S1130920A11D621F739FB00DA11D621F839FA00DA7
S1130930611D221F749F3327A00D611D231F849FF7
S1130940600D211D822F762F6A2F11249F5750404E
S11309509AF0F1F088234AF0EE0FFF1FBB1F661FC9
S1130960771F881F91505040A9F79E3F510580F092
S11309700C94CF040C945C045F3FE4F3983ED4F3EE
S1130980869577956795B795F795E7959F5FC1F736
S1130990FE2B880F911D9695879597F9089597F9E1
S11309A09F6780E870E060E008959FEF80EC089511
S11309B000240A941616170618060906089500243A
S11309C00A9412161306140605060895092E0394B4
S11309D0000C11F4882352F0BB0F40F4BF2B11F428
S11309E060FF04C06F5F7F4F8F4F9F4F0895BB27F9
S11309F04A3031F4992322F4BDE2909581959F4FBA
S1130A000C940305BB27FB015527AA27880F991FC0
S1130A10AA1FA41710F0A41B83955051B9F7A05D29
S1130A20AA3308F0A95DA193009779F7B111B193A6
S1130A301192CB010C941C05DC01FC01672F719110
S1130A407723E1F7329704C07C916D9370836291B0
S10F0A50AE17BF07C8F30895F894FFCF59
S1130A5C2020202000202020200046726F6E743A43
S1110A6C20004261636B3A200020202020000D
S9030000FC
