S00F000068632D737230342E73726563D4
S11300000C9434000C9451000C9451000C94510045
S11300100C9451000C9451000C9451000C94510018
S11300200C9451000C9451000C9451000C94510008
S11300300C9451000C9498010C9451000C945100B0
S11300400C94F4000C9451000C943A020C94680241
S11300500C9451000C9451000C9451000C945100D8
S11300600C9451000C94510011241FBECFEFD8E022
S1130070DEBFCDBF11E0A0E0B1E0E0E6F8E002C0F1
S113008005900D92A830B107D9F721E0A8E0B1E0BE
S113009001C01D92A635B207E1F70E949F000C949F
S11300A02E040C940000FC01408121E030E002C0E9
S11300B0220F331F6A95E2F7242B20830895FC0155
S11300C0808121E030E002C0220F331F6A95E2F7FD
S11300D02095822380838081818128232183089530
S11300E0FC01908121E030E002C0220F331F6A95A9
S11300F0E2F72095292320830895FC01408121E023
S113010030E002C0220F331F6A95E2F7242B2083CC
S11301100895FC01408121E030E002C0220F331F2A
S11301206A95E2F7242720830895FC01808190E0FA
S113013002C0959587956A95E2F78170089562E00B
S113014084E290E00E94530062E085E290E00E9425
S1130150700061E087E290E00E94530061E088E271
S113016090E00E94700062E087E290E00E945300F9
S113017062E088E290E00E94700063E087E290E031
S11301800E94530063E088E290E00E94700064E003
S113019087E290E00E94530064E088E290E00E94CD
S11301A0700063E084E290E00E945F0085B5897F7F
S11301B085BD85B5816085BDEEE6F0E08081816016
S11301C08083E1E8F0E080818C7F8083808184609B
S11301D08083EFE6F0E080818160808387E690E0B1
S11301E00E9492027894FFCF1F920F920FB60F9243
S11301F011242F933F934F935F936F937F938F9328
S11302009F93AF93BF93EF93FF9380910D019091D0
S11302100E01019690930E0180930D0120910C0123
S11302202130A1F018F0223099F16FC0029708F044
S11302306EC062E085E290E00E947D0081E08093E0
S11302400C0110920B0110920A0161C062E085E278
S113025090E00E94700080910D0190910E018F3DFD
S11302609F4090F463E083E290E00E94950088232D
S113027009F44DC080910A0190910B01019690936D
S11302800B0180930A0143C082E080930C013FC0BC
S113029060910A0170910B0180910801909109010C
S11302A06817790751F162957295707F7627607FA0
S11302B0762780E090E00E94FE0226E933E44BE8D2
S11302C05CE30E9464030E94CF02DC01CB019093A3
S11302D0100180930F014AE060E071E00E94F9038D
S11302E063E085E290E00E94890080910A01909188
S11302F00B01909309018093080110920B01109255
S11303000A0110920E0110920D0110920C01FF913E
S1130310EF91BF91AF919F918F917F916F915F9179
S11303204F913F912F910F900FBE0F901F901895F2
S11303301F920F920FB60F9211242F933F934F9356
S11303405F936F937F938F939F93AF93BF93EF9339
S1130350FF9380E091E00E94C00285E091E00E945A
S1130360C00280910F01909110018B309105A8F487
S113037061E088E290E00E947D0062E088E290E023
S11303800E947D0063E088E290E00E947D0064E0CA
S113039088E290E00E947D005CC083339105A8F45C
S11303A061E088E290E00E947D0062E088E290E0F3
S11303B00E947D0063E088E290E00E947D0064E09A
S11303C088E290E00E94700044C085369105A8F44C
S11303D061E088E290E00E947D0062E088E290E0C3
S11303E00E947D0063E088E290E00E94700064E077
S11303F088E290E00E9470002CC0893C9105A8F42A
S113040061E088E290E00E947D0062E088E290E092
S11304100E94700063E088E290E00E94700064E053
S113042088E290E00E94700014C061E088E290E0ED
S11304300E94700062E088E290E00E94700063E035
S113044088E290E00E94700064E088E290E00E94FC
S11304507000FF91EF91BF91AF919F918F917F9128
S11304606F915F914F913F912F910F900FBE0F901D
S11304701F9018951F920F920FB60F9211242F936D
S11304808F939F93EF93FF938091C0002091C600B8
S11304908C71E0911301EF5FEF7190911201E917F4
S11304A039F0E0931301F0E0EA5EFE4F208301C0CF
S11304B082E090911101892B80931101FF91EF91BA
S11304C09F918F912F910F900FBE0F901F901895B1
S11304D01F920F920FB60F9211248F939F93EF9355
S11304E0FF939091150180911401981769F0E091A0
S11304F01401EF5FEF71E0931401F0E0EA5CFE4F4A
S113050080818093C60005C0E1ECF0E080818F7D9E
S11305108083FF91EF919F918F910F900FBE0F9069
S11305201F90189510921501109214011092130146
S11305301092120199231CF422E02093C0009078B9
S11305409093C5008093C40088E98093C10086E03D
S11305508093C2000895209115012F5F2F7190910F
S113056014012917E1F3E22FF0E0EA5CFE4F8083E7
S113057020931501E1ECF0E080818062808308958E
S1130580CF93DF93EC018881882331F021960E9478
S1130590AB0289918111FBCFDF91CF9108950E9425
S11305A0430388F09F5798F0B92F9927B751B0F0BB
S11305B0E1F0660F771F881F991F1AF0BA95C9F7E3
S11305C014C0B13091F00E945D03B1E008950C9421
S11305D05D03672F782F8827B85F39F0B93FCCF3D4
S11305E0869577956795B395D9F73EF49095809560
S11305F0709561957F4F8F4F9F4F0895E89409C080
S113060097FB3EF490958095709561957F4F8F4F41
S11306109F4F9923A9F0F92F96E9BB279395F69557
S1130620879577956795B795F111F8CFFAF4BB0FD5
S113063011F460FF1BC06F5F7F4F8F4F9F4F16C039
S1130640882311F096E911C0772321F09EE8872FC3
S1130650762F05C0662371F096E8862F70E060E07F
S11306602AF09A95660F771F881FDAF7880F9695F8
S1130670879597F9089557FD9058440F551F59F0E1
S11306805F3F71F04795880F97FB991F61F09F3F7B
S113069079F087950895121613061406551FF2CFA4
S11306A04695F1DF08C0161617061806991FF1CFF4
S11306B086957105610508940895E894BB2766271B
S11306C07727CB0197F908950E9477030C94E803E8
S11306D00E94DA0338F00E94E10320F0952311F020
S11306E00C94D1030C94D70311240C945E030E9440
S11306F03B0370F3959FC1F3950F50E0551F629F24
S1130700F001729FBB27F00DB11D639FAA27F00D66
S1130710B11DAA1F649F6627B00DA11D661F829F8D
S11307202227B00DA11D621F739FB00DA11D621F72
S1130730839FA00D611D221F749F3327A00D611D8F
S1130740231F849F600D211D822F762F6A2F112471
S11307509F5750409AF0F1F088234AF0EE0FFF1FA4
S1130760BB1F661F771F881F91505040A9F79E3FFB
S1130770510580F00C94D1030C945E035F3FE4F3C5
S1130780983ED4F3869577956795B795F795E79551
S11307909F5FC1F7FE2B880F911D9695879597F95A
S11307A0089597F99F6780E870E060E008959FEFEF
S11307B080EC089500240A941616170618060906F4
S11307C0089500240A9412161306140605060895C3
S11307D0092E0394000C11F4882352F0BB0F40F44B
S11307E0BF2B11F460FF04C06F5F7F4F8F4F9F4F8B
S11307F00895BB274A3031F4992322F4BDE2909541
S113080081959F4F0C940504BB27FB015527AA270C
S1130810880F991FAA1FA41710F0A41B8395505189
S1130820B9F7A05DAA3308F0A95DA193009779F701
S1130830B111B1931192CB010C941E04DC01FC01A3
S1130840672F71917723E1F7329704C07C916D9300
S113085070836291AE17BF07C8F30895F894FFCF71
S10B086020202020000A000002
S9030000FC
