:100000000C9434000C9451000C9451000C94510049
:100010000C9451000C9451000C9451000C9451001C
:100020000C9451000C9451000C9451000C9451000C
:100030000C9451000C9451000C9493010C945100B9
:100040000C9451000C9451000C9401030C942F0358
:100050000C9451000C9451000C9451000C945100DC
:100060000C9451000C94510011241FBECFEFD8E026
:10007000DEBFCDBF11E0A0E0B1E0E6EAF9E002C0EA
:1000800005900D92AC33B107D9F721E0ACE3B1E0B4
:1000900001C01D92AA38B207E1F70E942D010C940D
:1000A000D1040C940000FC01408121E030E002C04A
:1000B000220F331F6A95E2F7242B20830895FC0159
:1000C000808121E030E002C0220F331F6A95E2F701
:1000D000922F90958923808380818181282B218391
:1000E0000895FC01908121E030E002C0220F331F0F
:1000F0006A95E2F72095292320830895FC01408129
:1001000021E030E002C0220F331F6A95E2F7242B72
:1001100020830895299A85E08A95F1F700002998AF
:100120000895CF93C82F662311F0289A01C028980C
:10013000549A559A569A579A5F985E985D985C982B
:10014000CC230CF45F9AC6FD5E9AC5FD5D9AC4FD92
:100150005C9A0E948A005F985E985D985C98C3FDE7
:100160005F9AC2FD5E9AC1FD5D9AC0FD5C9A0E94D5
:100170008A005C9A5D9A5E9A5F9A87EB9BE0019792
:10018000F1F700C00000CF91089560E00E94910057
:100190000895611104C080580E94C50008958054DC
:1001A0000E94C500089581E00E94C500089561E0A5
:1001B0000E9491000895CF93DF93EC012196FC01FA
:1001C0008081882329F00E94D70089918111FBCF7B
:1001D000DF91CF910895CF93C82F209A559A219AF5
:1001E000549A559A569A579A8FEF99EF0197F1F7CB
:1001F00000C000005D9A5C9A0E948A008FE19EE434
:100200000197F1F700C000000E948A008FEF90E094
:100210000197F1F700C000000E948A008FEF90E084
:100220000197F1F700C000005C980E948A008FEFF0
:1002300090E00197F1F700C0000088E20E94C5003D
:1002400088E00E94C5000E94D30086E00E94C5009D
:100250008C2F0E94C500CF91089561E087E290E065
:100260000E94530061E087E290E00E94710062E02A
:1002700087E290E00E94530062E087E290E00E94F3
:10028000710063E087E290E00E94530063E087E240
:1002900090E00E94710064E087E290E00E945300C9
:1002A00064E087E290E00E9471008CE00E94EB0025
:1002B00087E690E00E94590362E084E290E00E94A9
:1002C000530062E085E290E00E94710063E084E206
:1002D00090E00E945F0085B5897F85BD85B581600E
:1002E00085BD84B5826084BDEEE6F0E080818260E9
:1002F000808387E087BDE1E8F0E08081897F8083AB
:10030000808181608083EFE6F0E08081816080837E
:100310007894FFCF60E080E00E94C90086E091E021
:100320000E94DB0008951F920F920FB60F921124C6
:100330002F933F934F935F936F937F938F939F93ED
:10034000AF93BF93EF93FF93CF93DF93CDB7DEB718
:100350002597DEBFCDBF85E0E0E0F1E0DE0111963C
:1003600001900D928A95E1F780914401813019F155
:1003700020F0823009F446C02AC180914201909158
:100380004301019690934301809342010A9730F410
:1003900062E085E290E00E947E001BC162E085E29F
:1003A00090E00E947100109243011092420181E09E
:1003B000809344010EC180914201909143010196C6
:1003C00090934301809342011B9B11C01092430103
:1003D00010924201809140019091410101969093C9
:1003E00041018093400182E080934401F2C0883E45
:1003F0009D4F08F4EEC010924301109242011092FA
:100400004401E7C01B9B0AC08091400190914101CB
:1004100001969093410180934001DBC060914001BF
:100420007091410180E090E00E94A1032BE734E14C
:100430004EE25EE30E9407040E947203DC01CB01DE
:1004400090933F0180933E01109241011092400130
:100450004AE0BE016F5F7F4F0E949C0480913E0185
:1004600090913F0120913C0130913D0128173907BF
:1004700009F4A2C08B309105A8F461E088E290E015
:100480000E947E0062E088E290E00E947E0063E0CD
:1004900088E290E00E947E0064E088E290E00E94A2
:1004A0007E005CC083339105A8F461E088E290E0AF
:1004B0000E947E0062E088E290E00E947E0063E09D
:1004C00088E290E00E947E0064E088E290E00E9472
:1004D000710044C085369105A8F461E088E290E09F
:1004E0000E947E0062E088E290E00E947E0063E06D
:1004F00088E290E00E94710064E088E290E00E944F
:1005000071002CC0893C9105A8F461E088E290E07C
:100510000E947E0062E088E290E00E94710063E049
:1005200088E290E00E94710064E088E290E00E941E
:10053000710014C061E088E290E00E94710062E006
:1005400088E290E00E94710063E088E290E00E94FF
:10055000710064E088E290E00E94710080913E01A9
:1005600090913F018230910558F40E948A0160E029
:1005700080E00E94C90087E191E00E94DB001CC07E
:100580008139914078F40E948A0160E080E00E9405
:10059000C90081E291E00E94DB00CE0101960E9439
:1005A000DB000AC00E948A0160E080E00E94C9006E
:1005B00088E291E00E94DB0080913E0190913F0132
:1005C00090933D0180933C011092440102C010922F
:1005D00044010F900F900F900F900F90DF91CF91EB
:1005E000FF91EF91BF91AF919F918F917F916F910B
:1005F0005F914F913F912F910F900FBE0F901F90E1
:1006000018951F920F920FB60F9211242F938F936C
:100610009F93EF93FF938091C0002091C6008C714F
:10062000E0914701EF5FEF7190914601E91739F0D2
:10063000E0934701F0E0E65BFE4F208301C082E0DB
:1006400090914501892B80934501FF91EF919F91F6
:100650008F912F910F900FBE0F901F9018951F92A2
:100660000F920FB60F9211248F939F93EF93FF93E6
:100670009091490180914801981769F0E0914801F3
:10068000EF5FEF71E0934801F0E0E659FE4F8081A3
:100690008093C60005C0E1ECF0E080818F7D80830F
:1006A000FF91EF919F918F910F900FBE0F901F9030
:1006B000189510924901109248011092470110922A
:1006C000460199231CF422E02093C0009078909377
:1006D000C5008093C40088E98093C10086E08093C0
:1006E000C20008950E94E60388F09F5798F0B92F42
:1006F0009927B751B0F0E1F0660F771F881F991F57
:100700001AF0BA95C9F714C0B13091F00E940004F4
:10071000B1E008950C940004672F782F8827B85F04
:1007200039F0B93FCCF3869577956795B395D9F7AE
:100730003EF490958095709561957F4F8F4F9F4FB8
:100740000895E89409C097FB3EF4909580957095C4
:1007500061957F4F8F4F9F4F9923A9F0F92F96E90D
:10076000BB279395F695879577956795B795F11182
:10077000F8CFFAF4BB0F11F460FF1BC06F5F7F4F1F
:100780008F4F9F4F16C0882311F096E911C0772331
:1007900021F09EE8872F762F05C0662371F096E83A
:1007A000862F70E060E02AF09A95660F771F881F09
:1007B000DAF7880F9695879597F9089557FD905821
:1007C000440F551F59F05F3F71F04795880F97FB15
:1007D000991F61F09F3F79F08795089512161306CF
:1007E0001406551FF2CF4695F1DF08C016161706FE
:1007F0001806991FF1CF8695710561050894089533
:10080000E894BB2766277727CB0197F908950E94C4
:100810001A040C948B040E947D0438F00E94840416
:1008200020F0952311F00C9474040C947A04112494
:100830000C9401040E94DE0370F3959FC1F3950FA1
:1008400050E0551F629FF001729FBB27F00DB11D54
:10085000639FAA27F00DB11DAA1F649F6627B00DE4
:10086000A11D661F829F2227B00DA11D621F739FCD
:10087000B00DA11D621F839FA00D611D221F749FDB
:100880003327A00D611D231F849F600D211D822F22
:10089000762F6A2F11249F5750409AF0F1F0882349
:1008A0004AF0EE0FFF1FBB1F661F771F881F915076
:1008B0005040A9F79E3F510580F00C9474040C94AD
:1008C00001045F3FE4F3983ED4F3869577956795EE
:1008D000B795F795E7959F5FC1F7FE2B880F911DA0
:1008E0009695879597F9089597F99F6780E870E046
:1008F00060E008959FEF80EC089500240A94161696
:10090000170618060906089500240A9412161306FD
:10091000140605060895092E0394000C11F488238B
:1009200052F0BB0F40F4BF2B11F460FF04C06F5FA7
:100930007F4F8F4F9F4F0895BB274A3031F4992343
:1009400022F4BDE2909581959F4F0C94A804BB279B
:10095000FB015527AA27880F991FAA1FA41710F07B
:10096000A41B83955051B9F7A05DAA3308F0A95D87
:10097000A193009779F7B111B1931192CB010C9427
:10098000C104DC01FC01672F71917723E1F73297F5
:1009900004C07C916D9370836291AE17BF07C8F35A
:0609A0000895F894FFCF5A
:1009A6002020202020002020202020202020202061
:1009B60020202020202000546F6F20736D616C6C06
:1009C60000446973743A20004E6F206F626A656353
:0C09D60074206F72203E2034303000008E
:00000001FF
