S00F000068632D737230342E73726563D4
S11300000C9434000C9451000C9451000C94510045
S11300100C9451000C9451000C9451000C94510018
S11300200C9451000C942F020C9451000C94510028
S11300300C9451000C9407030C949E010C945100F1
S11300400C9451000C9451000C947B030C94A90360
S11300500C9451000C9451000C9451000C945100D8
S11300600C9451000C94510011241FBECFEFD8E022
S1130070DEBFCDBF11E0A0E0B1E0EAE9FAE002C0E2
S113008005900D92AA33B107D9F721E0AAE3B1E0B4
S113009001C01D92A838B207E1F70E9438010C9400
S11300A04B050C940000FC01408121E030E002C0CB
S11300B0220F331F6A95E2F7242B20830895FC0155
S11300C0808121E030E002C0220F331F6A95E2F7FD
S11300D02095822380838081818128232183089530
S11300E0FC01908121E030E002C0220F331F6A95A9
S11300F0E2F72095292320830895FC01408121E023
S113010030E002C0220F331F6A95E2F7242B2083CC
S11301100895FC01408121E030E002C0220F331F2A
S11301206A95E2F7242720830895299A85E08A9521
S1130130F1F7000029980895CF93C82F662311F092
S1130140289A01C02898549A559A569A579A5F98B3
S11301505E985D985C98CC230CF45F9AC6FD5E9A19
S1130160C5FD5D9AC4FD5C9A0E9495005F985E98F7
S11301705D985C98C3FD5F9AC2FD5E9AC1FD5D9A6D
S1130180C0FD5C9A0E9495005C9A5D9A5E9A5F9AA3
S113019087EB9BE00197F1F700C00000CF91089531
S11301A060E00E949C000895611104C080580E9480
S11301B0D000089580540E94D000089581E00E94E8
S11301C0D000089561E00E949C000895CF93DF93CE
S11301D0EC012196FC018081882329F00E94E20031
S11301E089918111FBCFDF91CF910895CF93C82FCF
S11301F0209A559A219A549A559A569A579A8FEF5B
S113020099EF0197F1F700C000005D9A5C9A0E9493
S113021095008FE19EE40197F1F700C000000E9471
S113022095008FEF90E00197F1F700C000000E9465
S113023095008FEF90E00197F1F700C000005C9803
S11302400E9495008FEF90E00197F1F700C0000045
S113025088E20E94D00088E00E94D0000E94DE0064
S113026086E00E94D0008C2F0E94D000CF91089588
S11302708CE00E94F60087E690E00E94D30362E0DF
S113028084E290E00E94530062E085E290E00E94E4
S1130290700063E084E290E00E945F0061E087E226
S11302A090E00E94530061E088E290E00E947000B8
S11302B062E087E290E00E94530062E088E290E00E
S11302C00E94700063E087E290E00E94530063E0C4
S11302D088E290E00E94700064E087E290E00E946F
S11302E0530064E088E290E00E94700085B5897F45
S11302F085BD85B5816085BD84B5826084BDEEE62B
S1130300F0E08081826080838FE487BDE1E8F0E0E3
S11303108081897F8083808181608083EFE6F0E043
S11303208081816080837894FFCF60E080E00E94C8
S1130330D40084E091E00E94E60008951F920F9299
S11303400FB60F9211242F933F934F935F936F93A4
S11303507F938F939F93AF93BF93EF93FF9380917A
S11303603E018130F1F018F08230F1F165C08091E6
S11303703C0190913D01019690933D0180933C0195
S1130380892B31F462E085E290E00E947D0056C042
S113039062E085E290E00E94700081E080933E017B
S11303A04DC080913C0190913D01019690933D0197
S11303B080933C018436994178F41B9B3FC0809123
S11303C03A0190913B01019690933B0180933A014D
S11303D081E080933E0132C010923D0110923C01B5
S11303E082E080933E012AC060913A0170913B0102
S11303F080E090E00E941B0420E030E040E251E401
S11304000E9481042BE734E14EE25EE30E94810402
S11304100E94EC03DC01CB019093420180934101E3
S113042010923B0110923A014AE060E071E00E94B0
S1130430160510923E0102C010923E01FF91EF9109
S1130440BF91AF919F918F917F916F915F914F91E8
S11304503F912F910F900FBE0F901F9018951F92F0
S11304600F920FB60F9211242F933F934F935F93E4
S11304706F937F938F939F93AF93BF93EF93FF9368
S1130480809141019091420120913F0130914001BE
S11304902817390709F4A2C08230910558F40E9444
S11304A0950160E080E00E94D40085E191E00E9423
S11304B0E6001CC08139914078F40E94950160E007
S11304C080E00E94D4008FE191E00E94E60080E089
S11304D091E00E94E6000AC00E94950160E080E07D
S11304E00E94D40086E291E00E94E60080914101DE
S11304F0909142018B309105A8F461E088E290E08C
S11305000E947D0062E088E290E00E947D0063E04A
S113051088E290E00E947D0064E088E290E00E941E
S11305207D005CC083339105A8F461E088E290E02B
S11305300E947D0062E088E290E00E947D0063E01A
S113054088E290E00E947D0064E088E290E00E94EE
S1130550700044C085369105A8F461E088E290E01B
S11305600E947D0062E088E290E00E947D0063E0EA
S113057088E290E00E94700064E088E290E00E94CB
S113058070002CC0893C9105A8F461E088E290E0F9
S11305900E947D0062E088E290E00E94700063E0C7
S11305A088E290E00E94700064E088E290E00E949B
S11305B0700014C061E088E290E00E94700062E084
S11305C088E290E00E94700063E088E290E00E947C
S11305D0700064E088E290E00E9470008091410124
S11305E0909142019093400180933F01FF91EF91DC
S11305F0BF91AF919F918F917F916F915F914F9137
S11306003F912F910F900FBE0F901F9018951F923E
S11306100F920FB60F9211242F933F934F935F9332
S11306206F937F938F939F93AF93BF93EF93FF93B6
S113063080914101909142018B30910570F463E007
S11306408BE290E00E948900E1E8F0E08081897FFC
S113065080838081816080833DC08333910570F401
S1130660E1E8F0E080818A7F8083808182608083FA
S113067063E08BE290E00E9489002CC085369105EE
S113068070F463E08BE290E00E948900E1E8F0E01E
S113069080818C7F80838081846080831BC0893CBF
S11306A0910570F463E08BE290E00E948900E1E838
S11306B0F0E080818C7F80838081846080830AC0A5
S11306C063E08BE290E00E948900E1EBF0E080813E
S11306D0887F8083FF91EF91BF91AF919F918F911C
S11306E07F916F915F914F913F912F910F900FBE2A
S11306F00F901F9018951F920F920FB60F9211240E
S11307002F938F939F93EF93FF938091C000209139
S1130710C6008C71E0914501EF5FEF719091440147
S1130720E91739F0E0934501F0E0E85BFE4F2083E0
S113073001C082E090914301892B80934301FF9192
S1130740EF919F918F912F910F900FBE0F901F905B
S113075018951F920F920FB60F9211248F939F93A7
S1130760EF93FF939091470180914601981769F0A8
S1130770E0914601EF5FEF71E0934601F0E0E85944
S1130780FE4F80818093C60005C0E1ECF0E08081DB
S11307908F7D8083FF91EF919F918F910F900FBE7A
S11307A00F901F90189510924701109246011092D5
S11307B045011092440199231CF422E02093C000C7
S11307C090789093C5008093C40088E98093C10019
S11307D086E08093C20008950E94600488F09F57C9
S11307E098F0B92F9927B751B0F0E1F0660F771F51
S11307F0881F991F1AF0BA95C9F714C0B13091F047
S11308000E947A04B1E008950C947A04672F782F3B
S11308108827B85F39F0B93FCCF38695779567950B
S1130820B395D9F73EF490958095709561957F4F77
S11308308F4F9F4F0895E89409C097FB3EF490951D
S11308408095709561957F4F8F4F9F4F9923A9F0A5
S1130850F92F96E9BB279395F69587957795679534
S1130860B795F111F8CFFAF4BB0F11F460FF1BC078
S11308706F5F7F4F8F4F9F4F16C0882311F096E90B
S113088011C0772321F09EE8872F762F05C06623B9
S113089071F096E8862F70E060E02AF09A95660F72
S11308A0771F881FDAF7880F9695879597F908952B
S11308B057FD9058440F551F59F05F3F71F047950D
S11308C0880F97FB991F61F09F3F79F087950895F2
S11308D0121613061406551FF2CF4695F1DF08C011
S11308E0161617061806991FF1CF8695710561052E
S11308F008940895E894BB2766277727CB0197F9D6
S113090008950E9494040C9405050E94F70438F09D
S11309100E94FE0420F0952311F00C94EE040C9434
S1130920F40411240C947B040E94580470F3959FE2
S1130930C1F3950F50E0551F629FF001729FBB27D2
S1130940F00DB11D639FAA27F00DB11DAA1F649F6E
S11309506627B00DA11D661F829F2227B00DA11D21
S1130960621F739FB00DA11D621F839FA00D611DA7
S1130970221F749F3327A00D611D231F849F600DC8
S1130980211D822F762F6A2F11249F5750409AF0F1
S1130990F1F088234AF0EE0FFF1FBB1F661F771F7D
S11309A0881F91505040A9F79E3F510580F00C9448
S11309B0EE040C947B045F3FE4F3983ED4F38695F5
S11309C077956795B795F795E7959F5FC1F7FE2BE8
S11309D0880F911D9695879597F9089597F99F67C4
S11309E080E870E060E008959FEF80EC08950024B3
S11309F00A941616170618060906089500240A9480
S1130A0012161306140605060895092E0394000C05
S1130A1011F4882352F0BB0F40F4BF2B11F460FF94
S1130A2004C06F5F7F4F8F4F9F4F0895BB274A309D
S1130A3031F4992322F4BDE2909581959F4F0C9453
S1130A402205BB27FB015527AA27880F991FAA1F38
S1130A50A41710F0A41B83955051B9F7A05DAA33D5
S1130A6008F0A95DA193009779F7B111B1931192A0
S1130A70CB010C943B05DC01FC01672F71917723BA
S1130A80E1F7329704C07C916D9370836291AE1745
S10D0A90BF07C8F30895F894FFCFE0
S1130A9A2020202020202020202020202020202048
S1130AAA2020202000546F6F20736D616C6C004409
S1130ABA6973743A20004E6F206F626A656374200A
S10D0ACA6F72203E2034303000002B
S9030000FC
